{"contracts/CrowdfundingCampaign.sol":{"CrowdfundingCampaign":{"abi":[{"inputs":[{"internalType":"address","name":"_feeCollector","type":"address"}],"stateMutability":"nonpayable","type":"constructor"},{"inputs":[],"name":"CampaignDurationInvalid","type":"error"},{"inputs":[],"name":"CampaignNotActive","type":"error"},{"inputs":[],"name":"DeadlineNotPassed","type":"error"},{"inputs":[],"name":"DeadlinePassed","type":"error"},{"inputs":[],"name":"EnforcedPause","type":"error"},{"inputs":[],"name":"ExpectedPause","type":"error"},{"inputs":[],"name":"FundsAlreadyWithdrawn","type":"error"},{"inputs":[],"name":"GoalAlreadyReached","type":"error"},{"inputs":[],"name":"GoalNotReached","type":"error"},{"inputs":[],"name":"InvalidAmount","type":"error"},{"inputs":[],"name":"InvalidCampaignId","type":"error"},{"inputs":[],"name":"InvalidCampaignParameters","type":"error"},{"inputs":[],"name":"NoContributionFound","type":"error"},{"inputs":[{"internalType":"address","name":"owner","type":"address"}],"name":"OwnableInvalidOwner","type":"error"},{"inputs":[{"internalType":"address","name":"account","type":"address"}],"name":"OwnableUnauthorizedAccount","type":"error"},{"inputs":[],"name":"ReentrancyGuardReentrantCall","type":"error"},{"inputs":[],"name":"RefundNotAvailable","type":"error"},{"inputs":[],"name":"UnauthorizedAccess","type":"error"},{"anonymous":false,"inputs":[{"indexed":true,"internalType":"uint256","name":"campaignId","type":"uint256"},{"indexed":true,"internalType":"address","name":"creator","type":"address"},{"indexed":false,"internalType":"uint256","name":"timestamp","type":"uint256"}],"name":"CampaignCancelled","type":"event"},{"anonymous":false,"inputs":[{"indexed":true,"internalType":"uint256","name":"campaignId","type":"uint256"},{"indexed":true,"internalType":"address","name":"creator","type":"address"},{"indexed":false,"internalType":"string","name":"title","type":"string"},{"indexed":false,"internalType":"uint256","name":"goal","type":"uint256"},{"indexed":false,"internalType":"uint256","name":"deadline","type":"uint256"},{"indexed":false,"internalType":"string","name":"category","type":"string"},{"indexed":false,"internalType":"uint256","name":"timestamp","type":"uint256"}],"name":"CampaignCreated","type":"event"},{"anonymous":false,"inputs":[{"indexed":true,"internalType":"uint256","name":"campaignId","type":"uint256"},{"indexed":true,"internalType":"address","name":"contributor","type":"address"},{"indexed":false,"internalType":"uint256","name":"amount","type":"uint256"},{"indexed":false,"internalType":"uint256","name":"newTotal","type":"uint256"},{"indexed":false,"internalType":"uint256","name":"timestamp","type":"uint256"}],"name":"ContributionMade","type":"event"},{"anonymous":false,"inputs":[{"indexed":true,"internalType":"uint256","name":"campaignId","type":"uint256"},{"indexed":true,"internalType":"address","name":"creator","type":"address"},{"indexed":false,"internalType":"uint256","name":"amount","type":"uint256"},{"indexed":false,"internalType":"string","name":"reason","type":"string"}],"name":"EmergencyWithdrawal","type":"event"},{"anonymous":false,"inputs":[{"indexed":true,"internalType":"uint256","name":"campaignId","type":"uint256"},{"indexed":true,"internalType":"address","name":"creator","type":"address"},{"indexed":false,"internalType":"uint256","name":"amount","type":"uint256"},{"indexed":false,"internalType":"uint256","name":"platformFee","type":"uint256"},{"indexed":false,"internalType":"uint256","name":"timestamp","type":"uint256"}],"name":"FundsWithdrawn","type":"event"},{"anonymous":false,"inputs":[{"indexed":true,"internalType":"uint256","name":"campaignId","type":"uint256"},{"indexed":false,"internalType":"uint256","name":"totalRaised","type":"uint256"},{"indexed":false,"internalType":"uint256","name":"timestamp","type":"uint256"}],"name":"GoalReached","type":"event"},{"anonymous":false,"inputs":[{"indexed":true,"internalType":"address","name":"previousOwner","type":"address"},{"indexed":true,"internalType":"address","name":"newOwner","type":"address"}],"name":"OwnershipTransferred","type":"event"},{"anonymous":false,"inputs":[{"indexed":false,"internalType":"address","name":"account","type":"address"}],"name":"Paused","type":"event"},{"anonymous":false,"inputs":[{"indexed":true,"internalType":"uint256","name":"campaignId","type":"uint256"},{"indexed":true,"internalType":"address","name":"contributor","type":"address"},{"indexed":false,"internalType":"uint256","name":"amount","type":"uint256"},{"indexed":false,"internalType":"uint256","name":"timestamp","type":"uint256"}],"name":"RefundClaimed","type":"event"},{"anonymous":false,"inputs":[{"indexed":false,"internalType":"address","name":"account","type":"address"}],"name":"Unpaused","type":"event"},{"stateMutability":"payable","type":"fallback"},{"inputs":[],"name":"MAX_CAMPAIGN_DURATION","outputs":[{"internalType":"uint256","name":"","type":"uint256"}],"stateMutability":"view","type":"function"},{"inputs":[],"name":"MAX_GOAL","outputs":[{"internalType":"uint256","name":"","type":"uint256"}],"stateMutability":"view","type":"function"},{"inputs":[],"name":"MIN_CAMPAIGN_DURATION","outputs":[{"internalType":"uint256","name":"","type":"uint256"}],"stateMutability":"view","type":"function"},{"inputs":[],"name":"MIN_GOAL","outputs":[{"internalType":"uint256","name":"","type":"uint256"}],"stateMutability":"view","type":"function"},{"inputs":[],"name":"PLATFORM_FEE_PERCENTAGE","outputs":[{"internalType":"uint256","name":"","type":"uint256"}],"stateMutability":"view","type":"function"},{"inputs":[],"name":"campaignCounter","outputs":[{"internalType":"uint256","name":"","type":"uint256"}],"stateMutability":"view","type":"function"},{"inputs":[{"internalType":"uint256","name":"","type":"uint256"}],"name":"campaigns","outputs":[{"internalType":"address payable","name":"creator","type":"address"},{"internalType":"string","name":"title","type":"string"},{"internalType":"string","name":"description","type":"string"},{"internalType":"string","name":"imageHash","type":"string"},{"internalType":"string","name":"category","type":"string"},{"internalType":"uint256","name":"goal","type":"uint256"},{"internalType":"uint256","name":"deadline","type":"uint256"},{"internalType":"uint256","name":"totalRaised","type":"uint256"},{"internalType":"uint256","name":"createdAt","type":"uint256"},{"internalType":"bool","name":"goalReached","type":"bool"},{"internalType":"bool","name":"fundsWithdrawn","type":"bool"},{"internalType":"bool","name":"isActive","type":"bool"}],"stateMutability":"view","type":"function"},{"inputs":[{"internalType":"uint256","name":"_campaignId","type":"uint256"},{"internalType":"address","name":"_contributor","type":"address"}],"name":"canClaimRefund","outputs":[{"internalType":"bool","name":"","type":"bool"}],"stateMutability":"view","type":"function"},{"inputs":[{"internalType":"uint256","name":"_campaignId","type":"uint256"}],"name":"cancelCampaign","outputs":[],"stateMutability":"nonpayable","type":"function"},{"inputs":[{"internalType":"uint256","name":"_campaignId","type":"uint256"}],"name":"claimRefund","outputs":[],"stateMutability":"nonpayable","type":"function"},{"inputs":[{"internalType":"uint256","name":"_campaignId","type":"uint256"}],"name":"contribute","outputs":[],"stateMutability":"payable","type":"function"},{"inputs":[{"internalType":"string","name":"_title","type":"string"},{"internalType":"string","name":"_description","type":"string"},{"internalType":"string","name":"_imageHash","type":"string"},{"internalType":"string","name":"_category","type":"string"},{"internalType":"uint256","name":"_goal","type":"uint256"},{"internalType":"uint256","name":"_durationInDays","type":"uint256"}],"name":"createCampaign","outputs":[{"internalType":"uint256","name":"","type":"uint256"}],"stateMutability":"nonpayable","type":"function"},{"inputs":[{"internalType":"uint256","name":"_campaignId","type":"uint256"},{"internalType":"string","name":"_reason","type":"string"}],"name":"emergencyWithdraw","outputs":[],"stateMutability":"nonpayable","type":"function"},{"inputs":[],"name":"feeCollector","outputs":[{"internalType":"address","name":"","type":"address"}],"stateMutability":"view","type":"function"},{"inputs":[{"internalType":"uint256","name":"_campaignId","type":"uint256"}],"name":"getCampaignDetails","outputs":[{"internalType":"address","name":"creator","type":"address"},{"internalType":"string","name":"title","type":"string"},{"internalType":"string","name":"description","type":"string"},{"internalType":"string","name":"imageHash","type":"string"},{"internalType":"string","name":"category","type":"string"},{"internalType":"uint256","name":"goal","type":"uint256"},{"internalType":"uint256","name":"deadline","type":"uint256"},{"internalType":"uint256","name":"totalRaised","type":"uint256"},{"internalType":"uint256","name":"createdAt","type":"uint256"},{"internalType":"bool","name":"goalReached","type":"bool"},{"internalType":"bool","name":"fundsWithdrawn","type":"bool"},{"internalType":"bool","name":"isActive","type":"bool"},{"internalType":"uint256","name":"contributorCount","type":"uint256"}],"stateMutability":"view","type":"function"},{"inputs":[{"internalType":"uint256","name":"_campaignId","type":"uint256"}],"name":"getCampaignStats","outputs":[{"internalType":"uint256","name":"percentageFunded","type":"uint256"},{"internalType":"uint256","name":"timeLeft","type":"uint256"},{"internalType":"uint256","name":"contributorCount","type":"uint256"},{"internalType":"bool","name":"isExpired","type":"bool"}],"stateMutability":"view","type":"function"},{"inputs":[],"name":"getContractBalance","outputs":[{"internalType":"uint256","name":"","type":"uint256"}],"stateMutability":"view","type":"function"},{"inputs":[{"internalType":"uint256","name":"_campaignId","type":"uint256"},{"internalType":"address","name":"_contributor","type":"address"}],"name":"getContribution","outputs":[{"internalType":"uint256","name":"","type":"uint256"}],"stateMutability":"view","type":"function"},{"inputs":[{"internalType":"uint256","name":"_campaignId","type":"uint256"}],"name":"getContributors","outputs":[{"internalType":"address[]","name":"","type":"address[]"}],"stateMutability":"view","type":"function"},{"inputs":[],"name":"getPlatformStats","outputs":[{"internalType":"uint256","name":"totalCampaigns","type":"uint256"},{"internalType":"uint256","name":"totalFundsRaised","type":"uint256"},{"internalType":"uint256","name":"successfulCampaigns","type":"uint256"},{"internalType":"uint256","name":"totalContributors","type":"uint256"},{"internalType":"uint256","name":"platformFeesCollected","type":"uint256"}],"stateMutability":"view","type":"function"},{"inputs":[{"internalType":"uint256","name":"_campaignId","type":"uint256"}],"name":"isGoalReached","outputs":[{"internalType":"bool","name":"","type":"bool"}],"stateMutability":"view","type":"function"},{"inputs":[],"name":"owner","outputs":[{"internalType":"address","name":"","type":"address"}],"stateMutability":"view","type":"function"},{"inputs":[],"name":"pause","outputs":[],"stateMutability":"nonpayable","type":"function"},{"inputs":[],"name":"paused","outputs":[{"internalType":"bool","name":"","type":"bool"}],"stateMutability":"view","type":"function"},{"inputs":[],"name":"renounceOwnership","outputs":[],"stateMutability":"nonpayable","type":"function"},{"inputs":[],"name":"totalFeesCollected","outputs":[{"internalType":"uint256","name":"","type":"uint256"}],"stateMutability":"view","type":"function"},{"inputs":[{"internalType":"address","name":"newOwner","type":"address"}],"name":"transferOwnership","outputs":[],"stateMutability":"nonpayable","type":"function"},{"inputs":[],"name":"unpause","outputs":[],"stateMutability":"nonpayable","type":"function"},{"inputs":[{"internalType":"address","name":"_newFeeCollector","type":"address"}],"name":"updateFeeCollector","outputs":[],"stateMutability":"nonpayable","type":"function"},{"inputs":[{"internalType":"uint256","name":"_campaignId","type":"uint256"}],"name":"withdrawFunds","outputs":[],"stateMutability":"nonpayable","type":"function"},{"stateMutability":"payable","type":"receive"}],"evm":{"bytecode":{"linkReferences":{},"object":"60803461012657601f611ddf38819003918201601f19168301916001600160401b0383118484101761012b5780849260209460405283398101031261012657516001600160a01b0381169081900361012657600160005533156101105760018054336001600160a01b03198216811790925560405191906001600160a01b03167f8be0079c531659141344cd1fd0a4f28419497f9722a3daafe3b4186f6b6457e0600080a381156100ce5750600480546001600160a01b031916919091179055604051611c9d90816101428239f35b62461bcd60e51b815260206004820152601d60248201527f496e76616c69642066656520636f6c6c6563746f7220616464726573730000006044820152606490fd5b631e4fbdf760e01b600052600060045260246000fd5b600080fd5b634e487b7160e01b600052604160045260246000fdfe6080806040526004361015610095575b5036156100505760405162461bcd60e51b8152602060048201526012602482015271119d5b98dd1a5bdb881b9bdd08199bdd5b9960721b6044820152606490fd5b60405162461bcd60e51b815260206004820152601b60248201527f446972656374207061796d656e7473206e6f7420616c6c6f77656400000000006044820152606490fd5b60003560e01c908163041ae4c6146119b357508063136d8883146118f9578063141961bc146117e757806315548232146117cb578063155dd5ee146115e3578063309bb3f2146115bf5780633c1ab00f146114f45780633cbb4668146113985780633f4ba83a1461132757806345598b4a1461127b5780635b7baf64146111005780635c975abb146110da57806360c6d8ae146110bc578063660bf9de14610ff85780636f9fb98a14610fd4578063715018a614610f775780637befbefc14610ed55780638456cb5914610e735780638aea3dc914610e555780638c7bc83814610e365780638da5cb5b14610e0d578063a8aee9401461079c578063c1cbbca71461050d578063c415b95c146104e4578063d2c35ce814610465578063d993de621461033e578063e081dbf9146102e8578063f19603aa14610299578063f2fde38b1461020f5763fca604d7146101ec573861000f565b3461020a57600036600319011261020a576020600354604051908152f35b600080fd5b3461020a57602036600319011261020a57610228611b8d565b610230611c1e565b6001600160a01b0316801561028357600180546001600160a01b0319811683179091556001600160a01b03167f8be0079c531659141344cd1fd0a4f28419497f9722a3daafe3b4186f6b6457e0600080a3005b631e4fbdf760e01b600052600060045260246000fd5b3461020a57602036600319011261020a576004356003548110156102d7576000526002602052602060ff600960406000200154166040519015158152f35b636824bccd60e01b60005260046000fd5b3461020a57604036600319011261020a57600435610304611b77565b906003548110156102d7576000526002602052600a6040600020019060018060a01b03166000526020526020604060002054604051908152f35b3461020a57602036600319011261020a576004356003548110156102d75760005260026020526040600020600160a01b600190038154166005820154600683015460078401546008850154600986015491600b87015493600188016103a290611a2f565b976103af60028201611a2f565b906103bc60038201611a2f565b906004016103c990611a2f565b916040519a8b9a8b5260208b016101a090526101a08b016103e991611ad3565b8a810360408c01526103fa91611ad3565b89810360608b015261040b91611ad3565b88810360808a015261041c91611ad3565b9560a088015260c087015260e086015261010085015260ff811615156101208501528060081c60ff16151561014085015260101c60ff1615156101608401526101808301520390f35b3461020a57602036600319011261020a5761047e611b8d565b610486611c1e565b6001600160a01b031680156104ad576001600160601b0360a01b6004541617600455600080f35b60405162461bcd60e51b815260206004820152600f60248201526e496e76616c6964206164647265737360881b6044820152606490fd5b3461020a57600036600319011261020a576004546040516001600160a01b039091168152602090f35b602036600319011261020a57600435610524611bfc565b61052c611c47565b6003548110156102d75780600052600260205260ff60096040600020015460101c161561078b57806000526002602052600660406000200154421161077a57341561074257806000526002602052604060002060018060a01b03815416331461076957600781019061059f348354611ba3565b906005810191825460968102908082046096149015171561075357606490041061074257600a81019060018060a01b03331660005281602052604060002054156106cb575b60099160018060a01b0333166000526020526040600020610606348254611ba3565b9055610613348554611ba3565b809455604051857f83d0ba35c3ca6f51f108e0cd74b8ac2c94a0eab594a431a1c3847e33c0023fc533928061065b428a34846040919493926060820195825260208201520152565b0390a3019182549160ff83161590816106bf575b5061067c575b6001600055005b7ffaa7ed71dae114b0fe8f8540ba2368bf76bb0efb81762c4c518719d6a972615392600160409360ff19161790558151908152426020820152a280808080610675565b9050548110158561066f565b600b81019182546801000000000000000081101561072c576001810180855581101561071657600993600052602060002001336001600160601b0360a01b82541617905591506105e4565b634e487b7160e01b600052603260045260246000fd5b634e487b7160e01b600052604160045260246000fd5b63162908e360e11b60005260046000fd5b634e487b7160e01b600052601160045260246000fd5b631a27eac360e11b60005260046000fd5b63387b2e5560e11b60005260046000fd5b63219a945b60e11b60005260046000fd5b3461020a5760c036600319011261020a5760043567ffffffffffffffff811161020a576107cd903690600401611b30565b60243567ffffffffffffffff811161020a576107ed903690600401611b30565b9060443567ffffffffffffffff811161020a5761080e903690600401611b30565b9060643567ffffffffffffffff811161020a5761082f903690600401611b30565b6084359360a43561083e611c47565b83518015908115610e02575b50610dd357815160328110908115610df6575b50610dd357662386f26fc1000086108015610de4575b610dd357600181108015610dc8575b610db7576003549461089386611bb0565b600355856000526002602052604060002092336001600160601b0360a01b85541617845560018401865167ffffffffffffffff811161072c576108d682546119d3565b601f8111610d6f575b50806020601f8211600114610d0a57600091610cff575b508160011b916000199060031b1c19161790555b8051600285019167ffffffffffffffff821161072c57819061092c84546119d3565b601f8111610cac575b50602090601f8311600114610c4757600092610c3c575b50508160011b916000199060031b1c19161790555b8051600384019167ffffffffffffffff821161072c57819061098384546119d3565b601f8111610be9575b50602090601f8311600114610b8457600092610b79575b50508160011b916000199060031b1c19161790555b60048201835167ffffffffffffffff811161072c576109d782546119d3565b601f8111610b31575b50806020601f8211600114610ace57600091610ac3575b508160011b916000199060031b1c19161790555b856005830155620151808102908082046201518014901517156107535760209585937ff7d8a9af1f27563ce039b3cea17cb378285283d358f35578234c331daa64f4f2936009610a5e610aae9542611ba3565b9182600682015542600882015560006007820155016201000062ffffff19825416179055610a976040519760a0895260a0890190611ad3565b928988015260408701528582036060870152611ad3565b924260808201528033940390a3604051908152f35b9050850151896109f7565b60008481528181209250601f198416905b818110610b1957509083600194939210610b00575b5050811b019055610a0b565b87015160001960f88460031b161c191690558980610af4565b9192602060018192868c015181550194019201610adf565b826000526020600020601f830160051c81019160208410610b6f575b601f0160051c01905b818110610b6357506109e0565b60008155600101610b56565b9091508190610b4d565b0151905089806109a3565b60008581528281209350601f198516905b818110610bd15750908460019594939210610bb8575b505050811b0190556109b8565b015160001960f88460031b161c19169055898080610bab565b92936020600181928786015181550195019301610b95565b909150836000526020600020601f840160051c81019160208510610c32575b90601f859493920160051c01905b818110610c23575061098c565b60008155849350600101610c16565b9091508190610c08565b015190508a8061094c565b60008581528281209350601f198516905b818110610c945750908460019594939210610c7b575b505050811b019055610961565b015160001960f88460031b161c191690558a8080610c6e565b92936020600181928786015181550195019301610c58565b909150836000526020600020601f840160051c81019160208510610cf5575b90601f859493920160051c01905b818110610ce65750610935565b60008155849350600101610cd9565b9091508190610ccb565b90508801518b6108f6565b60008481528181209250601f198416905b8b828210610d575750509083600194939210610d3e575b5050811b01905561090a565b8a015160001960f88460031b161c191690558b80610d32565b60018495602093958493015181550194019201610d1b565b826000526020600020601f830160051c81019160208410610dad575b601f0160051c01905b818110610da157506108df565b60008155600101610d94565b9091508190610d8b565b633dc4b81360e11b60005260046000fd5b5061016d8111610882565b6306ac19c760e31b60005260046000fd5b50683635c9adc5dea000008611610873565b6103e89150118761085d565b60649150118761084a565b3461020a57600036600319011261020a576001546040516001600160a01b039091168152602090f35b3461020a57600036600319011261020a5760206040516301e133808152f35b3461020a57600036600319011261020a576020604051620151808152f35b3461020a57600036600319011261020a57610e8c611c1e565b610e94611c47565b6001805460ff60a01b1916600160a01b1790556040513381527f62e78cea01bee320cd4e420270b5ea74000d11b0c9f74754ebdbfc544b05a25890602090a1005b3461020a57604036600319011261020a57600435610ef1611b77565b906003548110156102d75760005260026020526040600020600681015442119182610f67575b82610f54575b82610f30575b6020836040519015158152f35b600a925060018060a01b031660005201602052602060406000205415159082610f23565b600982015460081c60ff16159250610f1d565b600982015460ff16159250610f17565b3461020a57600036600319011261020a57610f90611c1e565b600180546001600160a01b031981169091556000906001600160a01b03167f8be0079c531659141344cd1fd0a4f28419497f9722a3daafe3b4186f6b6457e08280a3005b3461020a57600036600319011261020a57610fed611c1e565b602047604051908152f35b3461020a57602036600319011261020a576004356003548110156102d7576000908152600260205260409020600581015480159190826110af57600782015492606484029380850460641490151715610753576110995760809204905b60068101549081421060001461108f57600b6110714284611bbf565b915b0154906040519384526020840152604083015242116060820152f35b600b600091611073565b634e487b7160e01b600052601260045260246000fd5b5060809150600090611055565b3461020a57600036600319011261020a576020600554604051908152f35b3461020a57600036600319011261020a57602060ff60015460a01c166040519015158152f35b3461020a57602036600319011261020a5760043561111c611bfc565b6003548110156102d75780600052600260205260066040600020015442111561126a57806000526002602052604060002090600982015460ff81166112595760081c60ff1661124857336000908152600a8301602081905260409091205492831561123757600080808686600783968860018060a01b0333168652602052846040812055016111ac838254611bbf565b9055604051908282524260208301527f8faa8f78dba131fcf5a374c153d58b8f646053b7c2789321a5449f127258e1cd60403393a3335af16111ec611bcc565b50156111f9576001600055005b60405162461bcd60e51b81526020600482015260166024820152751499599d5b99081d1c985b9cd9995c8819985a5b195960521b6044820152606490fd5b6306af23c160e51b60005260046000fd5b633f72752760e21b60005260046000fd5b630b4d698160e01b60005260046000fd5b6302eb354360e41b60005260046000fd5b3461020a57602036600319011261020a576004356003548110156102d7576000818152600260205260409020546001600160a01b031633036107695780600052600260205260ff60096040600020015460101c161561078b57806000526002602052604060002060078101546107425760090162ff0000198154169055604051904282527f0f7f68c3235929bc579f89ca39893f34cca009140caeef3c2803dac725684f1c60203393a3005b3461020a57600036600319011261020a57611340611c1e565b60015460ff8160a01c16156113875760ff60a01b19166001556040513381527f5db9ee0a495bf2e6ff9c91a7834c1ba4fdd244a5e8aa4e537bd38aeae4b073aa90602090a1005b638dfc202b60e01b60005260046000fd5b3461020a57604036600319011261020a5760043560243567ffffffffffffffff811161020a576113cc903690600401611b30565b6113d4611c1e565b6003548210156102d75781600052600260205260406000209160078301805480156114b85760008080809361145e88887f5fa22300a932153a37b19aad103ef8ff9a6c00e3c5e73c8b165d404e8776b8f38c868b556009810162ff000019815416905560018060a01b03905416938493604051918291888352604060208401526040830190611ad3565b0390a35af161146b611bcc565b501561147357005b60405162461bcd60e51b815260206004820152601b60248201527f456d657267656e6379207769746864726177616c206661696c656400000000006044820152606490fd5b60405162461bcd60e51b81526020600482015260146024820152734e6f2066756e647320746f20776974686472617760601b6044820152606490fd5b3461020a57602036600319011261020a576004356003548110156102d7576000526002602052600b6040600020016040518060208354918281520190819360005260206000209060005b8181106115a05750505081611554910382611a0d565b6040519182916020830190602084525180915260408301919060005b81811061157e575050500390f35b82516001600160a01b0316845285945060209384019390920191600101611570565b82546001600160a01b031684526020909301926001928301920161153e565b3461020a57600036600319011261020a576020604051683635c9adc5dea000008152f35b3461020a57602036600319011261020a576004356115ff611bfc565b6003548110156102d7576000818152600260205260409020546001600160a01b031633036107695780600052600260205260406000206009810180549060ff8216156117ba5760ff8260081c16611248576007830154918215610742576101009062ffff00191617905560fa810281810460fa036107535761271061168691048092611bbf565b9261169382600554611ba3565b600555604051907f3d6a11453aa9d57866fab68b0aef74499ad1075b4f99ccbfbd7796cb3352991f3392806116db42878a846040919493926060820195825260208201520152565b0390a380611754575b50546000918291829182916001600160a01b03165af1611702611bcc565b501561170f576001600055005b60405162461bcd60e51b815260206004820152601a60248201527f5472616e7366657220746f2063726561746f72206661696c65640000000000006044820152606490fd5b6004546000918291829182916001600160a01b03165af1611773611bcc565b501561177f57826116e4565b60405162461bcd60e51b8152602060048201526013602482015272119959481d1c985b9cd9995c8819985a5b1959606a1b6044820152606490fd5b6378c754c960e01b60005260046000fd5b3461020a57600036600319011261020a57602060405160fa8152f35b3461020a57602036600319011261020a57600435600090815260026020526040902080546001600160a01b031661182060018301611a2f565b9161182d60028201611a2f565b61183960038301611a2f565b9161184660048201611a2f565b926005820154936006830154906007840154926008850154946009015495604051998a998a5260208a0161018090526101808a0161188391611ad3565b89810360408b015261189491611ad3565b88810360608a01526118a591611ad3565b87810360808901526118b691611ad3565b9460a087015260c086015260e085015261010084015260ff811615156101208401528060081c60ff16151561014084015260101c60ff1615156101608301520390f35b3461020a57600036600319011261020a576003546005549060009182602093604051611926602082611a0d565b82815282368137825b858110611959575060a0955051916040519485526020850152604084015260608301526080820152f35b8060005260028752611975604060002094600786015490611ba3565b9360ff6009820154166119a3575b600b015460005b81811061199b57505060010161192f565b60010161198a565b926119ad90611bb0565b92611983565b3461020a57600036600319011261020a5780662386f26fc1000060209252f35b90600182811c92168015611a03575b60208310146119ed57565b634e487b7160e01b600052602260045260246000fd5b91607f16916119e2565b90601f8019910116810190811067ffffffffffffffff82111761072c57604052565b9060405191826000825492611a43846119d3565b8084529360018116908115611ab15750600114611a6a575b50611a6892500383611a0d565b565b90506000929192526020600020906000915b818310611a95575050906020611a689282010138611a5b565b6020919350806001915483858901015201910190918492611a7c565b905060209250611a6894915060ff191682840152151560051b82010138611a5b565b919082519283825260005b848110611aff575050826000602080949584010152601f8019910116010190565b80602080928401015182828601015201611ade565b67ffffffffffffffff811161072c57601f01601f191660200190565b81601f8201121561020a57803590611b4782611b14565b92611b556040519485611a0d565b8284526020838301011161020a57816000926020809301838601378301015290565b602435906001600160a01b038216820361020a57565b600435906001600160a01b038216820361020a57565b9190820180921161075357565b60001981146107535760010190565b9190820391821161075357565b3d15611bf7573d90611bdd82611b14565b91611beb6040519384611a0d565b82523d6000602084013e565b606090565b600260005414611c0d576002600055565b633ee5aeb560e01b60005260046000fd5b6001546001600160a01b03163303611c3257565b63118cdaa760e01b6000523360045260246000fd5b60ff60015460a01c16611c5657565b63d93c066560e01b60005260046000fdfea264697066735822122042afb2fc84332dc8e720543c9cb1c13d3b3f5ccc852ec419abdf109256b3b4c164736f6c634300081a0033","opcodes":"PUSH1 0x80 CALLVALUE PUSH2 0x126 JUMPI PUSH1 0x1F PUSH2 0x1DDF CODESIZE DUP2 SWAP1 SUB SWAP2 DUP3 ADD PUSH1 0x1F NOT AND DUP4 ADD SWAP2 PUSH1 0x1 PUSH1 0x1 PUSH1 0x40 SHL SUB DUP4 GT DUP5 DUP5 LT OR PUSH2 0x12B JUMPI DUP1 DUP5 SWAP3 PUSH1 0x20 SWAP5 PUSH1 0x40 MSTORE DUP4 CODECOPY DUP2 ADD SUB SLT PUSH2 0x126 JUMPI MLOAD PUSH1 0x1 PUSH1 0x1 PUSH1 0xA0 SHL SUB DUP2 AND SWAP1 DUP2 SWAP1 SUB PUSH2 0x126 JUMPI PUSH1 0x1 PUSH1 0x0 SSTORE CALLER ISZERO PUSH2 0x110 JUMPI PUSH1 0x1 DUP1 SLOAD CALLER PUSH1 0x1 PUSH1 0x1 PUSH1 0xA0 SHL SUB NOT DUP3 AND DUP2 OR SWAP1 SWAP3 SSTORE PUSH1 0x40 MLOAD SWAP2 SWAP1 PUSH1 0x1 PUSH1 0x1 PUSH1 0xA0 SHL SUB AND PUSH32 0x8BE0079C531659141344CD1FD0A4F28419497F9722A3DAAFE3B4186F6B6457E0 PUSH1 0x0 DUP1 LOG3 DUP2 ISZERO PUSH2 0xCE JUMPI POP PUSH1 0x4 DUP1 SLOAD PUSH1 0x1 PUSH1 0x1 PUSH1 0xA0 SHL SUB NOT AND SWAP2 SWAP1 SWAP2 OR SWAP1 SSTORE PUSH1 0x40 MLOAD PUSH2 0x1C9D SWAP1 DUP2 PUSH2 0x142 DUP3 CODECOPY RETURN JUMPDEST PUSH3 0x461BCD PUSH1 0xE5 SHL DUP2 MSTORE PUSH1 0x20 PUSH1 0x4 DUP3 ADD MSTORE PUSH1 0x1D PUSH1 0x24 DUP3 ADD MSTORE PUSH32 0x496E76616C69642066656520636F6C6C6563746F722061646472657373000000 PUSH1 0x44 DUP3 ADD MSTORE PUSH1 0x64 SWAP1 REVERT JUMPDEST PUSH4 0x1E4FBDF7 PUSH1 0xE0 SHL PUSH1 0x0 MSTORE PUSH1 0x0 PUSH1 0x4 MSTORE PUSH1 0x24 PUSH1 0x0 REVERT JUMPDEST PUSH1 0x0 DUP1 REVERT JUMPDEST PUSH4 0x4E487B71 PUSH1 0xE0 SHL PUSH1 0x0 MSTORE PUSH1 0x41 PUSH1 0x4 MSTORE PUSH1 0x24 PUSH1 0x0 REVERT INVALID PUSH1 0x80 DUP1 PUSH1 0x40 MSTORE PUSH1 0x4 CALLDATASIZE LT ISZERO PUSH2 0x95 JUMPI JUMPDEST POP CALLDATASIZE ISZERO PUSH2 0x50 JUMPI PUSH1 0x40 MLOAD PUSH3 0x461BCD PUSH1 0xE5 SHL DUP2 MSTORE PUSH1 0x20 PUSH1 0x4 DUP3 ADD MSTORE PUSH1 0x12 PUSH1 0x24 DUP3 ADD MSTORE PUSH18 0x119D5B98DD1A5BDB881B9BDD08199BDD5B99 PUSH1 0x72 SHL PUSH1 0x44 DUP3 ADD MSTORE PUSH1 0x64 SWAP1 REVERT JUMPDEST PUSH1 0x40 MLOAD PUSH3 0x461BCD PUSH1 0xE5 SHL DUP2 MSTORE PUSH1 0x20 PUSH1 0x4 DUP3 ADD MSTORE PUSH1 0x1B PUSH1 0x24 DUP3 ADD MSTORE PUSH32 0x446972656374207061796D656E7473206E6F7420616C6C6F7765640000000000 PUSH1 0x44 DUP3 ADD MSTORE PUSH1 0x64 SWAP1 REVERT JUMPDEST PUSH1 0x0 CALLDATALOAD PUSH1 0xE0 SHR SWAP1 DUP2 PUSH4 0x41AE4C6 EQ PUSH2 0x19B3 JUMPI POP DUP1 PUSH4 0x136D8883 EQ PUSH2 0x18F9 JUMPI DUP1 PUSH4 0x141961BC EQ PUSH2 0x17E7 JUMPI DUP1 PUSH4 0x15548232 EQ PUSH2 0x17CB JUMPI DUP1 PUSH4 0x155DD5EE EQ PUSH2 0x15E3 JUMPI DUP1 PUSH4 0x309BB3F2 EQ PUSH2 0x15BF JUMPI DUP1 PUSH4 0x3C1AB00F EQ PUSH2 0x14F4 JUMPI DUP1 PUSH4 0x3CBB4668 EQ PUSH2 0x1398 JUMPI DUP1 PUSH4 0x3F4BA83A EQ PUSH2 0x1327 JUMPI DUP1 PUSH4 0x45598B4A EQ PUSH2 0x127B JUMPI DUP1 PUSH4 0x5B7BAF64 EQ PUSH2 0x1100 JUMPI DUP1 PUSH4 0x5C975ABB EQ PUSH2 0x10DA JUMPI DUP1 PUSH4 0x60C6D8AE EQ PUSH2 0x10BC JUMPI DUP1 PUSH4 0x660BF9DE EQ PUSH2 0xFF8 JUMPI DUP1 PUSH4 0x6F9FB98A EQ PUSH2 0xFD4 JUMPI DUP1 PUSH4 0x715018A6 EQ PUSH2 0xF77 JUMPI DUP1 PUSH4 0x7BEFBEFC EQ PUSH2 0xED5 JUMPI DUP1 PUSH4 0x8456CB59 EQ PUSH2 0xE73 JUMPI DUP1 PUSH4 0x8AEA3DC9 EQ PUSH2 0xE55 JUMPI DUP1 PUSH4 0x8C7BC838 EQ PUSH2 0xE36 JUMPI DUP1 PUSH4 0x8DA5CB5B EQ PUSH2 0xE0D JUMPI DUP1 PUSH4 0xA8AEE940 EQ PUSH2 0x79C JUMPI DUP1 PUSH4 0xC1CBBCA7 EQ PUSH2 0x50D JUMPI DUP1 PUSH4 0xC415B95C EQ PUSH2 0x4E4 JUMPI DUP1 PUSH4 0xD2C35CE8 EQ PUSH2 0x465 JUMPI DUP1 PUSH4 0xD993DE62 EQ PUSH2 0x33E JUMPI DUP1 PUSH4 0xE081DBF9 EQ PUSH2 0x2E8 JUMPI DUP1 PUSH4 0xF19603AA EQ PUSH2 0x299 JUMPI DUP1 PUSH4 0xF2FDE38B EQ PUSH2 0x20F JUMPI PUSH4 0xFCA604D7 EQ PUSH2 0x1EC JUMPI CODESIZE PUSH2 0xF JUMP JUMPDEST CALLVALUE PUSH2 0x20A JUMPI PUSH1 0x0 CALLDATASIZE PUSH1 0x3 NOT ADD SLT PUSH2 0x20A JUMPI PUSH1 0x20 PUSH1 0x3 SLOAD PUSH1 0x40 MLOAD SWAP1 DUP2 MSTORE RETURN JUMPDEST PUSH1 0x0 DUP1 REVERT JUMPDEST CALLVALUE PUSH2 0x20A JUMPI PUSH1 0x20 CALLDATASIZE PUSH1 0x3 NOT ADD SLT PUSH2 0x20A JUMPI PUSH2 0x228 PUSH2 0x1B8D JUMP JUMPDEST PUSH2 0x230 PUSH2 0x1C1E JUMP JUMPDEST PUSH1 0x1 PUSH1 0x1 PUSH1 0xA0 SHL SUB AND DUP1 ISZERO PUSH2 0x283 JUMPI PUSH1 0x1 DUP1 SLOAD PUSH1 0x1 PUSH1 0x1 PUSH1 0xA0 SHL SUB NOT DUP2 AND DUP4 OR SWAP1 SWAP2 SSTORE PUSH1 0x1 PUSH1 0x1 PUSH1 0xA0 SHL SUB AND PUSH32 0x8BE0079C531659141344CD1FD0A4F28419497F9722A3DAAFE3B4186F6B6457E0 PUSH1 0x0 DUP1 LOG3 STOP JUMPDEST PUSH4 0x1E4FBDF7 PUSH1 0xE0 SHL PUSH1 0x0 MSTORE PUSH1 0x0 PUSH1 0x4 MSTORE PUSH1 0x24 PUSH1 0x0 REVERT JUMPDEST CALLVALUE PUSH2 0x20A JUMPI PUSH1 0x20 CALLDATASIZE PUSH1 0x3 NOT ADD SLT PUSH2 0x20A JUMPI PUSH1 0x4 CALLDATALOAD PUSH1 0x3 SLOAD DUP2 LT ISZERO PUSH2 0x2D7 JUMPI PUSH1 0x0 MSTORE PUSH1 0x2 PUSH1 0x20 MSTORE PUSH1 0x20 PUSH1 0xFF PUSH1 0x9 PUSH1 0x40 PUSH1 0x0 KECCAK256 ADD SLOAD AND PUSH1 0x40 MLOAD SWAP1 ISZERO ISZERO DUP2 MSTORE RETURN JUMPDEST PUSH4 0x6824BCCD PUSH1 0xE0 SHL PUSH1 0x0 MSTORE PUSH1 0x4 PUSH1 0x0 REVERT JUMPDEST CALLVALUE PUSH2 0x20A JUMPI PUSH1 0x40 CALLDATASIZE PUSH1 0x3 NOT ADD SLT PUSH2 0x20A JUMPI PUSH1 0x4 CALLDATALOAD PUSH2 0x304 PUSH2 0x1B77 JUMP JUMPDEST SWAP1 PUSH1 0x3 SLOAD DUP2 LT ISZERO PUSH2 0x2D7 JUMPI PUSH1 0x0 MSTORE PUSH1 0x2 PUSH1 0x20 MSTORE PUSH1 0xA PUSH1 0x40 PUSH1 0x0 KECCAK256 ADD SWAP1 PUSH1 0x1 DUP1 PUSH1 0xA0 SHL SUB AND PUSH1 0x0 MSTORE PUSH1 0x20 MSTORE PUSH1 0x20 PUSH1 0x40 PUSH1 0x0 KECCAK256 SLOAD PUSH1 0x40 MLOAD SWAP1 DUP2 MSTORE RETURN JUMPDEST CALLVALUE PUSH2 0x20A JUMPI PUSH1 0x20 CALLDATASIZE PUSH1 0x3 NOT ADD SLT PUSH2 0x20A JUMPI PUSH1 0x4 CALLDATALOAD PUSH1 0x3 SLOAD DUP2 LT ISZERO PUSH2 0x2D7 JUMPI PUSH1 0x0 MSTORE PUSH1 0x2 PUSH1 0x20 MSTORE PUSH1 0x40 PUSH1 0x0 KECCAK256 PUSH1 0x1 PUSH1 0xA0 SHL PUSH1 0x1 SWAP1 SUB DUP2 SLOAD AND PUSH1 0x5 DUP3 ADD SLOAD PUSH1 0x6 DUP4 ADD SLOAD PUSH1 0x7 DUP5 ADD SLOAD PUSH1 0x8 DUP6 ADD SLOAD PUSH1 0x9 DUP7 ADD SLOAD SWAP2 PUSH1 0xB DUP8 ADD SLOAD SWAP4 PUSH1 0x1 DUP9 ADD PUSH2 0x3A2 SWAP1 PUSH2 0x1A2F JUMP JUMPDEST SWAP8 PUSH2 0x3AF PUSH1 0x2 DUP3 ADD PUSH2 0x1A2F JUMP JUMPDEST SWAP1 PUSH2 0x3BC PUSH1 0x3 DUP3 ADD PUSH2 0x1A2F JUMP JUMPDEST SWAP1 PUSH1 0x4 ADD PUSH2 0x3C9 SWAP1 PUSH2 0x1A2F JUMP JUMPDEST SWAP2 PUSH1 0x40 MLOAD SWAP11 DUP12 SWAP11 DUP12 MSTORE PUSH1 0x20 DUP12 ADD PUSH2 0x1A0 SWAP1 MSTORE PUSH2 0x1A0 DUP12 ADD PUSH2 0x3E9 SWAP2 PUSH2 0x1AD3 JUMP JUMPDEST DUP11 DUP2 SUB PUSH1 0x40 DUP13 ADD MSTORE PUSH2 0x3FA SWAP2 PUSH2 0x1AD3 JUMP JUMPDEST DUP10 DUP2 SUB PUSH1 0x60 DUP12 ADD MSTORE PUSH2 0x40B SWAP2 PUSH2 0x1AD3 JUMP JUMPDEST DUP9 DUP2 SUB PUSH1 0x80 DUP11 ADD MSTORE PUSH2 0x41C SWAP2 PUSH2 0x1AD3 JUMP JUMPDEST SWAP6 PUSH1 0xA0 DUP9 ADD MSTORE PUSH1 0xC0 DUP8 ADD MSTORE PUSH1 0xE0 DUP7 ADD MSTORE PUSH2 0x100 DUP6 ADD MSTORE PUSH1 0xFF DUP2 AND ISZERO ISZERO PUSH2 0x120 DUP6 ADD MSTORE DUP1 PUSH1 0x8 SHR PUSH1 0xFF AND ISZERO ISZERO PUSH2 0x140 DUP6 ADD MSTORE PUSH1 0x10 SHR PUSH1 0xFF AND ISZERO ISZERO PUSH2 0x160 DUP5 ADD MSTORE PUSH2 0x180 DUP4 ADD MSTORE SUB SWAP1 RETURN JUMPDEST CALLVALUE PUSH2 0x20A JUMPI PUSH1 0x20 CALLDATASIZE PUSH1 0x3 NOT ADD SLT PUSH2 0x20A JUMPI PUSH2 0x47E PUSH2 0x1B8D JUMP JUMPDEST PUSH2 0x486 PUSH2 0x1C1E JUMP JUMPDEST PUSH1 0x1 PUSH1 0x1 PUSH1 0xA0 SHL SUB AND DUP1 ISZERO PUSH2 0x4AD JUMPI PUSH1 0x1 PUSH1 0x1 PUSH1 0x60 SHL SUB PUSH1 0xA0 SHL PUSH1 0x4 SLOAD AND OR PUSH1 0x4 SSTORE PUSH1 0x0 DUP1 RETURN JUMPDEST PUSH1 0x40 MLOAD PUSH3 0x461BCD PUSH1 0xE5 SHL DUP2 MSTORE PUSH1 0x20 PUSH1 0x4 DUP3 ADD MSTORE PUSH1 0xF PUSH1 0x24 DUP3 ADD MSTORE PUSH15 0x496E76616C69642061646472657373 PUSH1 0x88 SHL PUSH1 0x44 DUP3 ADD MSTORE PUSH1 0x64 SWAP1 REVERT JUMPDEST CALLVALUE PUSH2 0x20A JUMPI PUSH1 0x0 CALLDATASIZE PUSH1 0x3 NOT ADD SLT PUSH2 0x20A JUMPI PUSH1 0x4 SLOAD PUSH1 0x40 MLOAD PUSH1 0x1 PUSH1 0x1 PUSH1 0xA0 SHL SUB SWAP1 SWAP2 AND DUP2 MSTORE PUSH1 0x20 SWAP1 RETURN JUMPDEST PUSH1 0x20 CALLDATASIZE PUSH1 0x3 NOT ADD SLT PUSH2 0x20A JUMPI PUSH1 0x4 CALLDATALOAD PUSH2 0x524 PUSH2 0x1BFC JUMP JUMPDEST PUSH2 0x52C PUSH2 0x1C47 JUMP JUMPDEST PUSH1 0x3 SLOAD DUP2 LT ISZERO PUSH2 0x2D7 JUMPI DUP1 PUSH1 0x0 MSTORE PUSH1 0x2 PUSH1 0x20 MSTORE PUSH1 0xFF PUSH1 0x9 PUSH1 0x40 PUSH1 0x0 KECCAK256 ADD SLOAD PUSH1 0x10 SHR AND ISZERO PUSH2 0x78B JUMPI DUP1 PUSH1 0x0 MSTORE PUSH1 0x2 PUSH1 0x20 MSTORE PUSH1 0x6 PUSH1 0x40 PUSH1 0x0 KECCAK256 ADD SLOAD TIMESTAMP GT PUSH2 0x77A JUMPI CALLVALUE ISZERO PUSH2 0x742 JUMPI DUP1 PUSH1 0x0 MSTORE PUSH1 0x2 PUSH1 0x20 MSTORE PUSH1 0x40 PUSH1 0x0 KECCAK256 PUSH1 0x1 DUP1 PUSH1 0xA0 SHL SUB DUP2 SLOAD AND CALLER EQ PUSH2 0x769 JUMPI PUSH1 0x7 DUP2 ADD SWAP1 PUSH2 0x59F CALLVALUE DUP4 SLOAD PUSH2 0x1BA3 JUMP JUMPDEST SWAP1 PUSH1 0x5 DUP2 ADD SWAP2 DUP3 SLOAD PUSH1 0x96 DUP2 MUL SWAP1 DUP1 DUP3 DIV PUSH1 0x96 EQ SWAP1 ISZERO OR ISZERO PUSH2 0x753 JUMPI PUSH1 0x64 SWAP1 DIV LT PUSH2 0x742 JUMPI PUSH1 0xA DUP2 ADD SWAP1 PUSH1 0x1 DUP1 PUSH1 0xA0 SHL SUB CALLER AND PUSH1 0x0 MSTORE DUP2 PUSH1 0x20 MSTORE PUSH1 0x40 PUSH1 0x0 KECCAK256 SLOAD ISZERO PUSH2 0x6CB JUMPI JUMPDEST PUSH1 0x9 SWAP2 PUSH1 0x1 DUP1 PUSH1 0xA0 SHL SUB CALLER AND PUSH1 0x0 MSTORE PUSH1 0x20 MSTORE PUSH1 0x40 PUSH1 0x0 KECCAK256 PUSH2 0x606 CALLVALUE DUP3 SLOAD PUSH2 0x1BA3 JUMP JUMPDEST SWAP1 SSTORE PUSH2 0x613 CALLVALUE DUP6 SLOAD PUSH2 0x1BA3 JUMP JUMPDEST DUP1 SWAP5 SSTORE PUSH1 0x40 MLOAD DUP6 PUSH32 0x83D0BA35C3CA6F51F108E0CD74B8AC2C94A0EAB594A431A1C3847E33C0023FC5 CALLER SWAP3 DUP1 PUSH2 0x65B TIMESTAMP DUP11 CALLVALUE DUP5 PUSH1 0x40 SWAP2 SWAP5 SWAP4 SWAP3 PUSH1 0x60 DUP3 ADD SWAP6 DUP3 MSTORE PUSH1 0x20 DUP3 ADD MSTORE ADD MSTORE JUMP JUMPDEST SUB SWAP1 LOG3 ADD SWAP2 DUP3 SLOAD SWAP2 PUSH1 0xFF DUP4 AND ISZERO SWAP1 DUP2 PUSH2 0x6BF JUMPI JUMPDEST POP PUSH2 0x67C JUMPI JUMPDEST PUSH1 0x1 PUSH1 0x0 SSTORE STOP JUMPDEST PUSH32 0xFAA7ED71DAE114B0FE8F8540BA2368BF76BB0EFB81762C4C518719D6A9726153 SWAP3 PUSH1 0x1 PUSH1 0x40 SWAP4 PUSH1 0xFF NOT AND OR SWAP1 SSTORE DUP2 MLOAD SWAP1 DUP2 MSTORE TIMESTAMP PUSH1 0x20 DUP3 ADD MSTORE LOG2 DUP1 DUP1 DUP1 DUP1 PUSH2 0x675 JUMP JUMPDEST SWAP1 POP SLOAD DUP2 LT ISZERO DUP6 PUSH2 0x66F JUMP JUMPDEST PUSH1 0xB DUP2 ADD SWAP2 DUP3 SLOAD PUSH9 0x10000000000000000 DUP2 LT ISZERO PUSH2 0x72C JUMPI PUSH1 0x1 DUP2 ADD DUP1 DUP6 SSTORE DUP2 LT ISZERO PUSH2 0x716 JUMPI PUSH1 0x9 SWAP4 PUSH1 0x0 MSTORE PUSH1 0x20 PUSH1 0x0 KECCAK256 ADD CALLER PUSH1 0x1 PUSH1 0x1 PUSH1 0x60 SHL SUB PUSH1 0xA0 SHL DUP3 SLOAD AND OR SWAP1 SSTORE SWAP2 POP PUSH2 0x5E4 JUMP JUMPDEST PUSH4 0x4E487B71 PUSH1 0xE0 SHL PUSH1 0x0 MSTORE PUSH1 0x32 PUSH1 0x4 MSTORE PUSH1 0x24 PUSH1 0x0 REVERT JUMPDEST PUSH4 0x4E487B71 PUSH1 0xE0 SHL PUSH1 0x0 MSTORE PUSH1 0x41 PUSH1 0x4 MSTORE PUSH1 0x24 PUSH1 0x0 REVERT JUMPDEST PUSH4 0x162908E3 PUSH1 0xE1 SHL PUSH1 0x0 MSTORE PUSH1 0x4 PUSH1 0x0 REVERT JUMPDEST PUSH4 0x4E487B71 PUSH1 0xE0 SHL PUSH1 0x0 MSTORE PUSH1 0x11 PUSH1 0x4 MSTORE PUSH1 0x24 PUSH1 0x0 REVERT JUMPDEST PUSH4 0x1A27EAC3 PUSH1 0xE1 SHL PUSH1 0x0 MSTORE PUSH1 0x4 PUSH1 0x0 REVERT JUMPDEST PUSH4 0x387B2E55 PUSH1 0xE1 SHL PUSH1 0x0 MSTORE PUSH1 0x4 PUSH1 0x0 REVERT JUMPDEST PUSH4 0x219A945B PUSH1 0xE1 SHL PUSH1 0x0 MSTORE PUSH1 0x4 PUSH1 0x0 REVERT JUMPDEST CALLVALUE PUSH2 0x20A JUMPI PUSH1 0xC0 CALLDATASIZE PUSH1 0x3 NOT ADD SLT PUSH2 0x20A JUMPI PUSH1 0x4 CALLDATALOAD PUSH8 0xFFFFFFFFFFFFFFFF DUP2 GT PUSH2 0x20A JUMPI PUSH2 0x7CD SWAP1 CALLDATASIZE SWAP1 PUSH1 0x4 ADD PUSH2 0x1B30 JUMP JUMPDEST PUSH1 0x24 CALLDATALOAD PUSH8 0xFFFFFFFFFFFFFFFF DUP2 GT PUSH2 0x20A JUMPI PUSH2 0x7ED SWAP1 CALLDATASIZE SWAP1 PUSH1 0x4 ADD PUSH2 0x1B30 JUMP JUMPDEST SWAP1 PUSH1 0x44 CALLDATALOAD PUSH8 0xFFFFFFFFFFFFFFFF DUP2 GT PUSH2 0x20A JUMPI PUSH2 0x80E SWAP1 CALLDATASIZE SWAP1 PUSH1 0x4 ADD PUSH2 0x1B30 JUMP JUMPDEST SWAP1 PUSH1 0x64 CALLDATALOAD PUSH8 0xFFFFFFFFFFFFFFFF DUP2 GT PUSH2 0x20A JUMPI PUSH2 0x82F SWAP1 CALLDATASIZE SWAP1 PUSH1 0x4 ADD PUSH2 0x1B30 JUMP JUMPDEST PUSH1 0x84 CALLDATALOAD SWAP4 PUSH1 0xA4 CALLDATALOAD PUSH2 0x83E PUSH2 0x1C47 JUMP JUMPDEST DUP4 MLOAD DUP1 ISZERO SWAP1 DUP2 ISZERO PUSH2 0xE02 JUMPI JUMPDEST POP PUSH2 0xDD3 JUMPI DUP2 MLOAD PUSH1 0x32 DUP2 LT SWAP1 DUP2 ISZERO PUSH2 0xDF6 JUMPI JUMPDEST POP PUSH2 0xDD3 JUMPI PUSH7 0x2386F26FC10000 DUP7 LT DUP1 ISZERO PUSH2 0xDE4 JUMPI JUMPDEST PUSH2 0xDD3 JUMPI PUSH1 0x1 DUP2 LT DUP1 ISZERO PUSH2 0xDC8 JUMPI JUMPDEST PUSH2 0xDB7 JUMPI PUSH1 0x3 SLOAD SWAP5 PUSH2 0x893 DUP7 PUSH2 0x1BB0 JUMP JUMPDEST PUSH1 0x3 SSTORE DUP6 PUSH1 0x0 MSTORE PUSH1 0x2 PUSH1 0x20 MSTORE PUSH1 0x40 PUSH1 0x0 KECCAK256 SWAP3 CALLER PUSH1 0x1 PUSH1 0x1 PUSH1 0x60 SHL SUB PUSH1 0xA0 SHL DUP6 SLOAD AND OR DUP5 SSTORE PUSH1 0x1 DUP5 ADD DUP7 MLOAD PUSH8 0xFFFFFFFFFFFFFFFF DUP2 GT PUSH2 0x72C JUMPI PUSH2 0x8D6 DUP3 SLOAD PUSH2 0x19D3 JUMP JUMPDEST PUSH1 0x1F DUP2 GT PUSH2 0xD6F JUMPI JUMPDEST POP DUP1 PUSH1 0x20 PUSH1 0x1F DUP3 GT PUSH1 0x1 EQ PUSH2 0xD0A JUMPI PUSH1 0x0 SWAP2 PUSH2 0xCFF JUMPI JUMPDEST POP DUP2 PUSH1 0x1 SHL SWAP2 PUSH1 0x0 NOT SWAP1 PUSH1 0x3 SHL SHR NOT AND OR SWAP1 SSTORE JUMPDEST DUP1 MLOAD PUSH1 0x2 DUP6 ADD SWAP2 PUSH8 0xFFFFFFFFFFFFFFFF DUP3 GT PUSH2 0x72C JUMPI DUP2 SWAP1 PUSH2 0x92C DUP5 SLOAD PUSH2 0x19D3 JUMP JUMPDEST PUSH1 0x1F DUP2 GT PUSH2 0xCAC JUMPI JUMPDEST POP PUSH1 0x20 SWAP1 PUSH1 0x1F DUP4 GT PUSH1 0x1 EQ PUSH2 0xC47 JUMPI PUSH1 0x0 SWAP3 PUSH2 0xC3C JUMPI JUMPDEST POP POP DUP2 PUSH1 0x1 SHL SWAP2 PUSH1 0x0 NOT SWAP1 PUSH1 0x3 SHL SHR NOT AND OR SWAP1 SSTORE JUMPDEST DUP1 MLOAD PUSH1 0x3 DUP5 ADD SWAP2 PUSH8 0xFFFFFFFFFFFFFFFF DUP3 GT PUSH2 0x72C JUMPI DUP2 SWAP1 PUSH2 0x983 DUP5 SLOAD PUSH2 0x19D3 JUMP JUMPDEST PUSH1 0x1F DUP2 GT PUSH2 0xBE9 JUMPI JUMPDEST POP PUSH1 0x20 SWAP1 PUSH1 0x1F DUP4 GT PUSH1 0x1 EQ PUSH2 0xB84 JUMPI PUSH1 0x0 SWAP3 PUSH2 0xB79 JUMPI JUMPDEST POP POP DUP2 PUSH1 0x1 SHL SWAP2 PUSH1 0x0 NOT SWAP1 PUSH1 0x3 SHL SHR NOT AND OR SWAP1 SSTORE JUMPDEST PUSH1 0x4 DUP3 ADD DUP4 MLOAD PUSH8 0xFFFFFFFFFFFFFFFF DUP2 GT PUSH2 0x72C JUMPI PUSH2 0x9D7 DUP3 SLOAD PUSH2 0x19D3 JUMP JUMPDEST PUSH1 0x1F DUP2 GT PUSH2 0xB31 JUMPI JUMPDEST POP DUP1 PUSH1 0x20 PUSH1 0x1F DUP3 GT PUSH1 0x1 EQ PUSH2 0xACE JUMPI PUSH1 0x0 SWAP2 PUSH2 0xAC3 JUMPI JUMPDEST POP DUP2 PUSH1 0x1 SHL SWAP2 PUSH1 0x0 NOT SWAP1 PUSH1 0x3 SHL SHR NOT AND OR SWAP1 SSTORE JUMPDEST DUP6 PUSH1 0x5 DUP4 ADD SSTORE PUSH3 0x15180 DUP2 MUL SWAP1 DUP1 DUP3 DIV PUSH3 0x15180 EQ SWAP1 ISZERO OR ISZERO PUSH2 0x753 JUMPI PUSH1 0x20 SWAP6 DUP6 SWAP4 PUSH32 0xF7D8A9AF1F27563CE039B3CEA17CB378285283D358F35578234C331DAA64F4F2 SWAP4 PUSH1 0x9 PUSH2 0xA5E PUSH2 0xAAE SWAP6 TIMESTAMP PUSH2 0x1BA3 JUMP JUMPDEST SWAP2 DUP3 PUSH1 0x6 DUP3 ADD SSTORE TIMESTAMP PUSH1 0x8 DUP3 ADD SSTORE PUSH1 0x0 PUSH1 0x7 DUP3 ADD SSTORE ADD PUSH3 0x10000 PUSH3 0xFFFFFF NOT DUP3 SLOAD AND OR SWAP1 SSTORE PUSH2 0xA97 PUSH1 0x40 MLOAD SWAP8 PUSH1 0xA0 DUP10 MSTORE PUSH1 0xA0 DUP10 ADD SWAP1 PUSH2 0x1AD3 JUMP JUMPDEST SWAP3 DUP10 DUP9 ADD MSTORE PUSH1 0x40 DUP8 ADD MSTORE DUP6 DUP3 SUB PUSH1 0x60 DUP8 ADD MSTORE PUSH2 0x1AD3 JUMP JUMPDEST SWAP3 TIMESTAMP PUSH1 0x80 DUP3 ADD MSTORE DUP1 CALLER SWAP5 SUB SWAP1 LOG3 PUSH1 0x40 MLOAD SWAP1 DUP2 MSTORE RETURN JUMPDEST SWAP1 POP DUP6 ADD MLOAD DUP10 PUSH2 0x9F7 JUMP JUMPDEST PUSH1 0x0 DUP5 DUP2 MSTORE DUP2 DUP2 KECCAK256 SWAP3 POP PUSH1 0x1F NOT DUP5 AND SWAP1 JUMPDEST DUP2 DUP2 LT PUSH2 0xB19 JUMPI POP SWAP1 DUP4 PUSH1 0x1 SWAP5 SWAP4 SWAP3 LT PUSH2 0xB00 JUMPI JUMPDEST POP POP DUP2 SHL ADD SWAP1 SSTORE PUSH2 0xA0B JUMP JUMPDEST DUP8 ADD MLOAD PUSH1 0x0 NOT PUSH1 0xF8 DUP5 PUSH1 0x3 SHL AND SHR NOT AND SWAP1 SSTORE DUP10 DUP1 PUSH2 0xAF4 JUMP JUMPDEST SWAP2 SWAP3 PUSH1 0x20 PUSH1 0x1 DUP2 SWAP3 DUP7 DUP13 ADD MLOAD DUP2 SSTORE ADD SWAP5 ADD SWAP3 ADD PUSH2 0xADF JUMP JUMPDEST DUP3 PUSH1 0x0 MSTORE PUSH1 0x20 PUSH1 0x0 KECCAK256 PUSH1 0x1F DUP4 ADD PUSH1 0x5 SHR DUP2 ADD SWAP2 PUSH1 0x20 DUP5 LT PUSH2 0xB6F JUMPI JUMPDEST PUSH1 0x1F ADD PUSH1 0x5 SHR ADD SWAP1 JUMPDEST DUP2 DUP2 LT PUSH2 0xB63 JUMPI POP PUSH2 0x9E0 JUMP JUMPDEST PUSH1 0x0 DUP2 SSTORE PUSH1 0x1 ADD PUSH2 0xB56 JUMP JUMPDEST SWAP1 SWAP2 POP DUP2 SWAP1 PUSH2 0xB4D JUMP JUMPDEST ADD MLOAD SWAP1 POP DUP10 DUP1 PUSH2 0x9A3 JUMP JUMPDEST PUSH1 0x0 DUP6 DUP2 MSTORE DUP3 DUP2 KECCAK256 SWAP4 POP PUSH1 0x1F NOT DUP6 AND SWAP1 JUMPDEST DUP2 DUP2 LT PUSH2 0xBD1 JUMPI POP SWAP1 DUP5 PUSH1 0x1 SWAP6 SWAP5 SWAP4 SWAP3 LT PUSH2 0xBB8 JUMPI JUMPDEST POP POP POP DUP2 SHL ADD SWAP1 SSTORE PUSH2 0x9B8 JUMP JUMPDEST ADD MLOAD PUSH1 0x0 NOT PUSH1 0xF8 DUP5 PUSH1 0x3 SHL AND SHR NOT AND SWAP1 SSTORE DUP10 DUP1 DUP1 PUSH2 0xBAB JUMP JUMPDEST SWAP3 SWAP4 PUSH1 0x20 PUSH1 0x1 DUP2 SWAP3 DUP8 DUP7 ADD MLOAD DUP2 SSTORE ADD SWAP6 ADD SWAP4 ADD PUSH2 0xB95 JUMP JUMPDEST SWAP1 SWAP2 POP DUP4 PUSH1 0x0 MSTORE PUSH1 0x20 PUSH1 0x0 KECCAK256 PUSH1 0x1F DUP5 ADD PUSH1 0x5 SHR DUP2 ADD SWAP2 PUSH1 0x20 DUP6 LT PUSH2 0xC32 JUMPI JUMPDEST SWAP1 PUSH1 0x1F DUP6 SWAP5 SWAP4 SWAP3 ADD PUSH1 0x5 SHR ADD SWAP1 JUMPDEST DUP2 DUP2 LT PUSH2 0xC23 JUMPI POP PUSH2 0x98C JUMP JUMPDEST PUSH1 0x0 DUP2 SSTORE DUP5 SWAP4 POP PUSH1 0x1 ADD PUSH2 0xC16 JUMP JUMPDEST SWAP1 SWAP2 POP DUP2 SWAP1 PUSH2 0xC08 JUMP JUMPDEST ADD MLOAD SWAP1 POP DUP11 DUP1 PUSH2 0x94C JUMP JUMPDEST PUSH1 0x0 DUP6 DUP2 MSTORE DUP3 DUP2 KECCAK256 SWAP4 POP PUSH1 0x1F NOT DUP6 AND SWAP1 JUMPDEST DUP2 DUP2 LT PUSH2 0xC94 JUMPI POP SWAP1 DUP5 PUSH1 0x1 SWAP6 SWAP5 SWAP4 SWAP3 LT PUSH2 0xC7B JUMPI JUMPDEST POP POP POP DUP2 SHL ADD SWAP1 SSTORE PUSH2 0x961 JUMP JUMPDEST ADD MLOAD PUSH1 0x0 NOT PUSH1 0xF8 DUP5 PUSH1 0x3 SHL AND SHR NOT AND SWAP1 SSTORE DUP11 DUP1 DUP1 PUSH2 0xC6E JUMP JUMPDEST SWAP3 SWAP4 PUSH1 0x20 PUSH1 0x1 DUP2 SWAP3 DUP8 DUP7 ADD MLOAD DUP2 SSTORE ADD SWAP6 ADD SWAP4 ADD PUSH2 0xC58 JUMP JUMPDEST SWAP1 SWAP2 POP DUP4 PUSH1 0x0 MSTORE PUSH1 0x20 PUSH1 0x0 KECCAK256 PUSH1 0x1F DUP5 ADD PUSH1 0x5 SHR DUP2 ADD SWAP2 PUSH1 0x20 DUP6 LT PUSH2 0xCF5 JUMPI JUMPDEST SWAP1 PUSH1 0x1F DUP6 SWAP5 SWAP4 SWAP3 ADD PUSH1 0x5 SHR ADD SWAP1 JUMPDEST DUP2 DUP2 LT PUSH2 0xCE6 JUMPI POP PUSH2 0x935 JUMP JUMPDEST PUSH1 0x0 DUP2 SSTORE DUP5 SWAP4 POP PUSH1 0x1 ADD PUSH2 0xCD9 JUMP JUMPDEST SWAP1 SWAP2 POP DUP2 SWAP1 PUSH2 0xCCB JUMP JUMPDEST SWAP1 POP DUP9 ADD MLOAD DUP12 PUSH2 0x8F6 JUMP JUMPDEST PUSH1 0x0 DUP5 DUP2 MSTORE DUP2 DUP2 KECCAK256 SWAP3 POP PUSH1 0x1F NOT DUP5 AND SWAP1 JUMPDEST DUP12 DUP3 DUP3 LT PUSH2 0xD57 JUMPI POP POP SWAP1 DUP4 PUSH1 0x1 SWAP5 SWAP4 SWAP3 LT PUSH2 0xD3E JUMPI JUMPDEST POP POP DUP2 SHL ADD SWAP1 SSTORE PUSH2 0x90A JUMP JUMPDEST DUP11 ADD MLOAD PUSH1 0x0 NOT PUSH1 0xF8 DUP5 PUSH1 0x3 SHL AND SHR NOT AND SWAP1 SSTORE DUP12 DUP1 PUSH2 0xD32 JUMP JUMPDEST PUSH1 0x1 DUP5 SWAP6 PUSH1 0x20 SWAP4 SWAP6 DUP5 SWAP4 ADD MLOAD DUP2 SSTORE ADD SWAP5 ADD SWAP3 ADD PUSH2 0xD1B JUMP JUMPDEST DUP3 PUSH1 0x0 MSTORE PUSH1 0x20 PUSH1 0x0 KECCAK256 PUSH1 0x1F DUP4 ADD PUSH1 0x5 SHR DUP2 ADD SWAP2 PUSH1 0x20 DUP5 LT PUSH2 0xDAD JUMPI JUMPDEST PUSH1 0x1F ADD PUSH1 0x5 SHR ADD SWAP1 JUMPDEST DUP2 DUP2 LT PUSH2 0xDA1 JUMPI POP PUSH2 0x8DF JUMP JUMPDEST PUSH1 0x0 DUP2 SSTORE PUSH1 0x1 ADD PUSH2 0xD94 JUMP JUMPDEST SWAP1 SWAP2 POP DUP2 SWAP1 PUSH2 0xD8B JUMP JUMPDEST PUSH4 0x3DC4B813 PUSH1 0xE1 SHL PUSH1 0x0 MSTORE PUSH1 0x4 PUSH1 0x0 REVERT JUMPDEST POP PUSH2 0x16D DUP2 GT PUSH2 0x882 JUMP JUMPDEST PUSH4 0x6AC19C7 PUSH1 0xE3 SHL PUSH1 0x0 MSTORE PUSH1 0x4 PUSH1 0x0 REVERT JUMPDEST POP PUSH9 0x3635C9ADC5DEA00000 DUP7 GT PUSH2 0x873 JUMP JUMPDEST PUSH2 0x3E8 SWAP2 POP GT DUP8 PUSH2 0x85D JUMP JUMPDEST PUSH1 0x64 SWAP2 POP GT DUP8 PUSH2 0x84A JUMP JUMPDEST CALLVALUE PUSH2 0x20A JUMPI PUSH1 0x0 CALLDATASIZE PUSH1 0x3 NOT ADD SLT PUSH2 0x20A JUMPI PUSH1 0x1 SLOAD PUSH1 0x40 MLOAD PUSH1 0x1 PUSH1 0x1 PUSH1 0xA0 SHL SUB SWAP1 SWAP2 AND DUP2 MSTORE PUSH1 0x20 SWAP1 RETURN JUMPDEST CALLVALUE PUSH2 0x20A JUMPI PUSH1 0x0 CALLDATASIZE PUSH1 0x3 NOT ADD SLT PUSH2 0x20A JUMPI PUSH1 0x20 PUSH1 0x40 MLOAD PUSH4 0x1E13380 DUP2 MSTORE RETURN JUMPDEST CALLVALUE PUSH2 0x20A JUMPI PUSH1 0x0 CALLDATASIZE PUSH1 0x3 NOT ADD SLT PUSH2 0x20A JUMPI PUSH1 0x20 PUSH1 0x40 MLOAD PUSH3 0x15180 DUP2 MSTORE RETURN JUMPDEST CALLVALUE PUSH2 0x20A JUMPI PUSH1 0x0 CALLDATASIZE PUSH1 0x3 NOT ADD SLT PUSH2 0x20A JUMPI PUSH2 0xE8C PUSH2 0x1C1E JUMP JUMPDEST PUSH2 0xE94 PUSH2 0x1C47 JUMP JUMPDEST PUSH1 0x1 DUP1 SLOAD PUSH1 0xFF PUSH1 0xA0 SHL NOT AND PUSH1 0x1 PUSH1 0xA0 SHL OR SWAP1 SSTORE PUSH1 0x40 MLOAD CALLER DUP2 MSTORE PUSH32 0x62E78CEA01BEE320CD4E420270B5EA74000D11B0C9F74754EBDBFC544B05A258 SWAP1 PUSH1 0x20 SWAP1 LOG1 STOP JUMPDEST CALLVALUE PUSH2 0x20A JUMPI PUSH1 0x40 CALLDATASIZE PUSH1 0x3 NOT ADD SLT PUSH2 0x20A JUMPI PUSH1 0x4 CALLDATALOAD PUSH2 0xEF1 PUSH2 0x1B77 JUMP JUMPDEST SWAP1 PUSH1 0x3 SLOAD DUP2 LT ISZERO PUSH2 0x2D7 JUMPI PUSH1 0x0 MSTORE PUSH1 0x2 PUSH1 0x20 MSTORE PUSH1 0x40 PUSH1 0x0 KECCAK256 PUSH1 0x6 DUP2 ADD SLOAD TIMESTAMP GT SWAP2 DUP3 PUSH2 0xF67 JUMPI JUMPDEST DUP3 PUSH2 0xF54 JUMPI JUMPDEST DUP3 PUSH2 0xF30 JUMPI JUMPDEST PUSH1 0x20 DUP4 PUSH1 0x40 MLOAD SWAP1 ISZERO ISZERO DUP2 MSTORE RETURN JUMPDEST PUSH1 0xA SWAP3 POP PUSH1 0x1 DUP1 PUSH1 0xA0 SHL SUB AND PUSH1 0x0 MSTORE ADD PUSH1 0x20 MSTORE PUSH1 0x20 PUSH1 0x40 PUSH1 0x0 KECCAK256 SLOAD ISZERO ISZERO SWAP1 DUP3 PUSH2 0xF23 JUMP JUMPDEST PUSH1 0x9 DUP3 ADD SLOAD PUSH1 0x8 SHR PUSH1 0xFF AND ISZERO SWAP3 POP PUSH2 0xF1D JUMP JUMPDEST PUSH1 0x9 DUP3 ADD SLOAD PUSH1 0xFF AND ISZERO SWAP3 POP PUSH2 0xF17 JUMP JUMPDEST CALLVALUE PUSH2 0x20A JUMPI PUSH1 0x0 CALLDATASIZE PUSH1 0x3 NOT ADD SLT PUSH2 0x20A JUMPI PUSH2 0xF90 PUSH2 0x1C1E JUMP JUMPDEST PUSH1 0x1 DUP1 SLOAD PUSH1 0x1 PUSH1 0x1 PUSH1 0xA0 SHL SUB NOT DUP2 AND SWAP1 SWAP2 SSTORE PUSH1 0x0 SWAP1 PUSH1 0x1 PUSH1 0x1 PUSH1 0xA0 SHL SUB AND PUSH32 0x8BE0079C531659141344CD1FD0A4F28419497F9722A3DAAFE3B4186F6B6457E0 DUP3 DUP1 LOG3 STOP JUMPDEST CALLVALUE PUSH2 0x20A JUMPI PUSH1 0x0 CALLDATASIZE PUSH1 0x3 NOT ADD SLT PUSH2 0x20A JUMPI PUSH2 0xFED PUSH2 0x1C1E JUMP JUMPDEST PUSH1 0x20 SELFBALANCE PUSH1 0x40 MLOAD SWAP1 DUP2 MSTORE RETURN JUMPDEST CALLVALUE PUSH2 0x20A JUMPI PUSH1 0x20 CALLDATASIZE PUSH1 0x3 NOT ADD SLT PUSH2 0x20A JUMPI PUSH1 0x4 CALLDATALOAD PUSH1 0x3 SLOAD DUP2 LT ISZERO PUSH2 0x2D7 JUMPI PUSH1 0x0 SWAP1 DUP2 MSTORE PUSH1 0x2 PUSH1 0x20 MSTORE PUSH1 0x40 SWAP1 KECCAK256 PUSH1 0x5 DUP2 ADD SLOAD DUP1 ISZERO SWAP2 SWAP1 DUP3 PUSH2 0x10AF JUMPI PUSH1 0x7 DUP3 ADD SLOAD SWAP3 PUSH1 0x64 DUP5 MUL SWAP4 DUP1 DUP6 DIV PUSH1 0x64 EQ SWAP1 ISZERO OR ISZERO PUSH2 0x753 JUMPI PUSH2 0x1099 JUMPI PUSH1 0x80 SWAP3 DIV SWAP1 JUMPDEST PUSH1 0x6 DUP2 ADD SLOAD SWAP1 DUP2 TIMESTAMP LT PUSH1 0x0 EQ PUSH2 0x108F JUMPI PUSH1 0xB PUSH2 0x1071 TIMESTAMP DUP5 PUSH2 0x1BBF JUMP JUMPDEST SWAP2 JUMPDEST ADD SLOAD SWAP1 PUSH1 0x40 MLOAD SWAP4 DUP5 MSTORE PUSH1 0x20 DUP5 ADD MSTORE PUSH1 0x40 DUP4 ADD MSTORE TIMESTAMP GT PUSH1 0x60 DUP3 ADD MSTORE RETURN JUMPDEST PUSH1 0xB PUSH1 0x0 SWAP2 PUSH2 0x1073 JUMP JUMPDEST PUSH4 0x4E487B71 PUSH1 0xE0 SHL PUSH1 0x0 MSTORE PUSH1 0x12 PUSH1 0x4 MSTORE PUSH1 0x24 PUSH1 0x0 REVERT JUMPDEST POP PUSH1 0x80 SWAP2 POP PUSH1 0x0 SWAP1 PUSH2 0x1055 JUMP JUMPDEST CALLVALUE PUSH2 0x20A JUMPI PUSH1 0x0 CALLDATASIZE PUSH1 0x3 NOT ADD SLT PUSH2 0x20A JUMPI PUSH1 0x20 PUSH1 0x5 SLOAD PUSH1 0x40 MLOAD SWAP1 DUP2 MSTORE RETURN JUMPDEST CALLVALUE PUSH2 0x20A JUMPI PUSH1 0x0 CALLDATASIZE PUSH1 0x3 NOT ADD SLT PUSH2 0x20A JUMPI PUSH1 0x20 PUSH1 0xFF PUSH1 0x1 SLOAD PUSH1 0xA0 SHR AND PUSH1 0x40 MLOAD SWAP1 ISZERO ISZERO DUP2 MSTORE RETURN JUMPDEST CALLVALUE PUSH2 0x20A JUMPI PUSH1 0x20 CALLDATASIZE PUSH1 0x3 NOT ADD SLT PUSH2 0x20A JUMPI PUSH1 0x4 CALLDATALOAD PUSH2 0x111C PUSH2 0x1BFC JUMP JUMPDEST PUSH1 0x3 SLOAD DUP2 LT ISZERO PUSH2 0x2D7 JUMPI DUP1 PUSH1 0x0 MSTORE PUSH1 0x2 PUSH1 0x20 MSTORE PUSH1 0x6 PUSH1 0x40 PUSH1 0x0 KECCAK256 ADD SLOAD TIMESTAMP GT ISZERO PUSH2 0x126A JUMPI DUP1 PUSH1 0x0 MSTORE PUSH1 0x2 PUSH1 0x20 MSTORE PUSH1 0x40 PUSH1 0x0 KECCAK256 SWAP1 PUSH1 0x9 DUP3 ADD SLOAD PUSH1 0xFF DUP2 AND PUSH2 0x1259 JUMPI PUSH1 0x8 SHR PUSH1 0xFF AND PUSH2 0x1248 JUMPI CALLER PUSH1 0x0 SWAP1 DUP2 MSTORE PUSH1 0xA DUP4 ADD PUSH1 0x20 DUP2 SWAP1 MSTORE PUSH1 0x40 SWAP1 SWAP2 KECCAK256 SLOAD SWAP3 DUP4 ISZERO PUSH2 0x1237 JUMPI PUSH1 0x0 DUP1 DUP1 DUP7 DUP7 PUSH1 0x7 DUP4 SWAP7 DUP9 PUSH1 0x1 DUP1 PUSH1 0xA0 SHL SUB CALLER AND DUP7 MSTORE PUSH1 0x20 MSTORE DUP5 PUSH1 0x40 DUP2 KECCAK256 SSTORE ADD PUSH2 0x11AC DUP4 DUP3 SLOAD PUSH2 0x1BBF JUMP JUMPDEST SWAP1 SSTORE PUSH1 0x40 MLOAD SWAP1 DUP3 DUP3 MSTORE TIMESTAMP PUSH1 0x20 DUP4 ADD MSTORE PUSH32 0x8FAA8F78DBA131FCF5A374C153D58B8F646053B7C2789321A5449F127258E1CD PUSH1 0x40 CALLER SWAP4 LOG3 CALLER GAS CALL PUSH2 0x11EC PUSH2 0x1BCC JUMP JUMPDEST POP ISZERO PUSH2 0x11F9 JUMPI PUSH1 0x1 PUSH1 0x0 SSTORE STOP JUMPDEST PUSH1 0x40 MLOAD PUSH3 0x461BCD PUSH1 0xE5 SHL DUP2 MSTORE PUSH1 0x20 PUSH1 0x4 DUP3 ADD MSTORE PUSH1 0x16 PUSH1 0x24 DUP3 ADD MSTORE PUSH22 0x1499599D5B99081D1C985B9CD9995C8819985A5B1959 PUSH1 0x52 SHL PUSH1 0x44 DUP3 ADD MSTORE PUSH1 0x64 SWAP1 REVERT JUMPDEST PUSH4 0x6AF23C1 PUSH1 0xE5 SHL PUSH1 0x0 MSTORE PUSH1 0x4 PUSH1 0x0 REVERT JUMPDEST PUSH4 0x3F727527 PUSH1 0xE2 SHL PUSH1 0x0 MSTORE PUSH1 0x4 PUSH1 0x0 REVERT JUMPDEST PUSH4 0xB4D6981 PUSH1 0xE0 SHL PUSH1 0x0 MSTORE PUSH1 0x4 PUSH1 0x0 REVERT JUMPDEST PUSH4 0x2EB3543 PUSH1 0xE4 SHL PUSH1 0x0 MSTORE PUSH1 0x4 PUSH1 0x0 REVERT JUMPDEST CALLVALUE PUSH2 0x20A JUMPI PUSH1 0x20 CALLDATASIZE PUSH1 0x3 NOT ADD SLT PUSH2 0x20A JUMPI PUSH1 0x4 CALLDATALOAD PUSH1 0x3 SLOAD DUP2 LT ISZERO PUSH2 0x2D7 JUMPI PUSH1 0x0 DUP2 DUP2 MSTORE PUSH1 0x2 PUSH1 0x20 MSTORE PUSH1 0x40 SWAP1 KECCAK256 SLOAD PUSH1 0x1 PUSH1 0x1 PUSH1 0xA0 SHL SUB AND CALLER SUB PUSH2 0x769 JUMPI DUP1 PUSH1 0x0 MSTORE PUSH1 0x2 PUSH1 0x20 MSTORE PUSH1 0xFF PUSH1 0x9 PUSH1 0x40 PUSH1 0x0 KECCAK256 ADD SLOAD PUSH1 0x10 SHR AND ISZERO PUSH2 0x78B JUMPI DUP1 PUSH1 0x0 MSTORE PUSH1 0x2 PUSH1 0x20 MSTORE PUSH1 0x40 PUSH1 0x0 KECCAK256 PUSH1 0x7 DUP2 ADD SLOAD PUSH2 0x742 JUMPI PUSH1 0x9 ADD PUSH3 0xFF0000 NOT DUP2 SLOAD AND SWAP1 SSTORE PUSH1 0x40 MLOAD SWAP1 TIMESTAMP DUP3 MSTORE PUSH32 0xF7F68C3235929BC579F89CA39893F34CCA009140CAEEF3C2803DAC725684F1C PUSH1 0x20 CALLER SWAP4 LOG3 STOP JUMPDEST CALLVALUE PUSH2 0x20A JUMPI PUSH1 0x0 CALLDATASIZE PUSH1 0x3 NOT ADD SLT PUSH2 0x20A JUMPI PUSH2 0x1340 PUSH2 0x1C1E JUMP JUMPDEST PUSH1 0x1 SLOAD PUSH1 0xFF DUP2 PUSH1 0xA0 SHR AND ISZERO PUSH2 0x1387 JUMPI PUSH1 0xFF PUSH1 0xA0 SHL NOT AND PUSH1 0x1 SSTORE PUSH1 0x40 MLOAD CALLER DUP2 MSTORE PUSH32 0x5DB9EE0A495BF2E6FF9C91A7834C1BA4FDD244A5E8AA4E537BD38AEAE4B073AA SWAP1 PUSH1 0x20 SWAP1 LOG1 STOP JUMPDEST PUSH4 0x8DFC202B PUSH1 0xE0 SHL PUSH1 0x0 MSTORE PUSH1 0x4 PUSH1 0x0 REVERT JUMPDEST CALLVALUE PUSH2 0x20A JUMPI PUSH1 0x40 CALLDATASIZE PUSH1 0x3 NOT ADD SLT PUSH2 0x20A JUMPI PUSH1 0x4 CALLDATALOAD PUSH1 0x24 CALLDATALOAD PUSH8 0xFFFFFFFFFFFFFFFF DUP2 GT PUSH2 0x20A JUMPI PUSH2 0x13CC SWAP1 CALLDATASIZE SWAP1 PUSH1 0x4 ADD PUSH2 0x1B30 JUMP JUMPDEST PUSH2 0x13D4 PUSH2 0x1C1E JUMP JUMPDEST PUSH1 0x3 SLOAD DUP3 LT ISZERO PUSH2 0x2D7 JUMPI DUP2 PUSH1 0x0 MSTORE PUSH1 0x2 PUSH1 0x20 MSTORE PUSH1 0x40 PUSH1 0x0 KECCAK256 SWAP2 PUSH1 0x7 DUP4 ADD DUP1 SLOAD DUP1 ISZERO PUSH2 0x14B8 JUMPI PUSH1 0x0 DUP1 DUP1 DUP1 SWAP4 PUSH2 0x145E DUP9 DUP9 PUSH32 0x5FA22300A932153A37B19AAD103EF8FF9A6C00E3C5E73C8B165D404E8776B8F3 DUP13 DUP7 DUP12 SSTORE PUSH1 0x9 DUP2 ADD PUSH3 0xFF0000 NOT DUP2 SLOAD AND SWAP1 SSTORE PUSH1 0x1 DUP1 PUSH1 0xA0 SHL SUB SWAP1 SLOAD AND SWAP4 DUP5 SWAP4 PUSH1 0x40 MLOAD SWAP2 DUP3 SWAP2 DUP9 DUP4 MSTORE PUSH1 0x40 PUSH1 0x20 DUP5 ADD MSTORE PUSH1 0x40 DUP4 ADD SWAP1 PUSH2 0x1AD3 JUMP JUMPDEST SUB SWAP1 LOG3 GAS CALL PUSH2 0x146B PUSH2 0x1BCC JUMP JUMPDEST POP ISZERO PUSH2 0x1473 JUMPI STOP JUMPDEST PUSH1 0x40 MLOAD PUSH3 0x461BCD PUSH1 0xE5 SHL DUP2 MSTORE PUSH1 0x20 PUSH1 0x4 DUP3 ADD MSTORE PUSH1 0x1B PUSH1 0x24 DUP3 ADD MSTORE PUSH32 0x456D657267656E6379207769746864726177616C206661696C65640000000000 PUSH1 0x44 DUP3 ADD MSTORE PUSH1 0x64 SWAP1 REVERT JUMPDEST PUSH1 0x40 MLOAD PUSH3 0x461BCD PUSH1 0xE5 SHL DUP2 MSTORE PUSH1 0x20 PUSH1 0x4 DUP3 ADD MSTORE PUSH1 0x14 PUSH1 0x24 DUP3 ADD MSTORE PUSH20 0x4E6F2066756E647320746F207769746864726177 PUSH1 0x60 SHL PUSH1 0x44 DUP3 ADD MSTORE PUSH1 0x64 SWAP1 REVERT JUMPDEST CALLVALUE PUSH2 0x20A JUMPI PUSH1 0x20 CALLDATASIZE PUSH1 0x3 NOT ADD SLT PUSH2 0x20A JUMPI PUSH1 0x4 CALLDATALOAD PUSH1 0x3 SLOAD DUP2 LT ISZERO PUSH2 0x2D7 JUMPI PUSH1 0x0 MSTORE PUSH1 0x2 PUSH1 0x20 MSTORE PUSH1 0xB PUSH1 0x40 PUSH1 0x0 KECCAK256 ADD PUSH1 0x40 MLOAD DUP1 PUSH1 0x20 DUP4 SLOAD SWAP2 DUP3 DUP2 MSTORE ADD SWAP1 DUP2 SWAP4 PUSH1 0x0 MSTORE PUSH1 0x20 PUSH1 0x0 KECCAK256 SWAP1 PUSH1 0x0 JUMPDEST DUP2 DUP2 LT PUSH2 0x15A0 JUMPI POP POP POP DUP2 PUSH2 0x1554 SWAP2 SUB DUP3 PUSH2 0x1A0D JUMP JUMPDEST PUSH1 0x40 MLOAD SWAP2 DUP3 SWAP2 PUSH1 0x20 DUP4 ADD SWAP1 PUSH1 0x20 DUP5 MSTORE MLOAD DUP1 SWAP2 MSTORE PUSH1 0x40 DUP4 ADD SWAP2 SWAP1 PUSH1 0x0 JUMPDEST DUP2 DUP2 LT PUSH2 0x157E JUMPI POP POP POP SUB SWAP1 RETURN JUMPDEST DUP3 MLOAD PUSH1 0x1 PUSH1 0x1 PUSH1 0xA0 SHL SUB AND DUP5 MSTORE DUP6 SWAP5 POP PUSH1 0x20 SWAP4 DUP5 ADD SWAP4 SWAP1 SWAP3 ADD SWAP2 PUSH1 0x1 ADD PUSH2 0x1570 JUMP JUMPDEST DUP3 SLOAD PUSH1 0x1 PUSH1 0x1 PUSH1 0xA0 SHL SUB AND DUP5 MSTORE PUSH1 0x20 SWAP1 SWAP4 ADD SWAP3 PUSH1 0x1 SWAP3 DUP4 ADD SWAP3 ADD PUSH2 0x153E JUMP JUMPDEST CALLVALUE PUSH2 0x20A JUMPI PUSH1 0x0 CALLDATASIZE PUSH1 0x3 NOT ADD SLT PUSH2 0x20A JUMPI PUSH1 0x20 PUSH1 0x40 MLOAD PUSH9 0x3635C9ADC5DEA00000 DUP2 MSTORE RETURN JUMPDEST CALLVALUE PUSH2 0x20A JUMPI PUSH1 0x20 CALLDATASIZE PUSH1 0x3 NOT ADD SLT PUSH2 0x20A JUMPI PUSH1 0x4 CALLDATALOAD PUSH2 0x15FF PUSH2 0x1BFC JUMP JUMPDEST PUSH1 0x3 SLOAD DUP2 LT ISZERO PUSH2 0x2D7 JUMPI PUSH1 0x0 DUP2 DUP2 MSTORE PUSH1 0x2 PUSH1 0x20 MSTORE PUSH1 0x40 SWAP1 KECCAK256 SLOAD PUSH1 0x1 PUSH1 0x1 PUSH1 0xA0 SHL SUB AND CALLER SUB PUSH2 0x769 JUMPI DUP1 PUSH1 0x0 MSTORE PUSH1 0x2 PUSH1 0x20 MSTORE PUSH1 0x40 PUSH1 0x0 KECCAK256 PUSH1 0x9 DUP2 ADD DUP1 SLOAD SWAP1 PUSH1 0xFF DUP3 AND ISZERO PUSH2 0x17BA JUMPI PUSH1 0xFF DUP3 PUSH1 0x8 SHR AND PUSH2 0x1248 JUMPI PUSH1 0x7 DUP4 ADD SLOAD SWAP2 DUP3 ISZERO PUSH2 0x742 JUMPI PUSH2 0x100 SWAP1 PUSH3 0xFFFF00 NOT AND OR SWAP1 SSTORE PUSH1 0xFA DUP2 MUL DUP2 DUP2 DIV PUSH1 0xFA SUB PUSH2 0x753 JUMPI PUSH2 0x2710 PUSH2 0x1686 SWAP2 DIV DUP1 SWAP3 PUSH2 0x1BBF JUMP JUMPDEST SWAP3 PUSH2 0x1693 DUP3 PUSH1 0x5 SLOAD PUSH2 0x1BA3 JUMP JUMPDEST PUSH1 0x5 SSTORE PUSH1 0x40 MLOAD SWAP1 PUSH32 0x3D6A11453AA9D57866FAB68B0AEF74499AD1075B4F99CCBFBD7796CB3352991F CALLER SWAP3 DUP1 PUSH2 0x16DB TIMESTAMP DUP8 DUP11 DUP5 PUSH1 0x40 SWAP2 SWAP5 SWAP4 SWAP3 PUSH1 0x60 DUP3 ADD SWAP6 DUP3 MSTORE PUSH1 0x20 DUP3 ADD MSTORE ADD MSTORE JUMP JUMPDEST SUB SWAP1 LOG3 DUP1 PUSH2 0x1754 JUMPI JUMPDEST POP SLOAD PUSH1 0x0 SWAP2 DUP3 SWAP2 DUP3 SWAP2 DUP3 SWAP2 PUSH1 0x1 PUSH1 0x1 PUSH1 0xA0 SHL SUB AND GAS CALL PUSH2 0x1702 PUSH2 0x1BCC JUMP JUMPDEST POP ISZERO PUSH2 0x170F JUMPI PUSH1 0x1 PUSH1 0x0 SSTORE STOP JUMPDEST PUSH1 0x40 MLOAD PUSH3 0x461BCD PUSH1 0xE5 SHL DUP2 MSTORE PUSH1 0x20 PUSH1 0x4 DUP3 ADD MSTORE PUSH1 0x1A PUSH1 0x24 DUP3 ADD MSTORE PUSH32 0x5472616E7366657220746F2063726561746F72206661696C6564000000000000 PUSH1 0x44 DUP3 ADD MSTORE PUSH1 0x64 SWAP1 REVERT JUMPDEST PUSH1 0x4 SLOAD PUSH1 0x0 SWAP2 DUP3 SWAP2 DUP3 SWAP2 DUP3 SWAP2 PUSH1 0x1 PUSH1 0x1 PUSH1 0xA0 SHL SUB AND GAS CALL PUSH2 0x1773 PUSH2 0x1BCC JUMP JUMPDEST POP ISZERO PUSH2 0x177F JUMPI DUP3 PUSH2 0x16E4 JUMP JUMPDEST PUSH1 0x40 MLOAD PUSH3 0x461BCD PUSH1 0xE5 SHL DUP2 MSTORE PUSH1 0x20 PUSH1 0x4 DUP3 ADD MSTORE PUSH1 0x13 PUSH1 0x24 DUP3 ADD MSTORE PUSH19 0x119959481D1C985B9CD9995C8819985A5B1959 PUSH1 0x6A SHL PUSH1 0x44 DUP3 ADD MSTORE PUSH1 0x64 SWAP1 REVERT JUMPDEST PUSH4 0x78C754C9 PUSH1 0xE0 SHL PUSH1 0x0 MSTORE PUSH1 0x4 PUSH1 0x0 REVERT JUMPDEST CALLVALUE PUSH2 0x20A JUMPI PUSH1 0x0 CALLDATASIZE PUSH1 0x3 NOT ADD SLT PUSH2 0x20A JUMPI PUSH1 0x20 PUSH1 0x40 MLOAD PUSH1 0xFA DUP2 MSTORE RETURN JUMPDEST CALLVALUE PUSH2 0x20A JUMPI PUSH1 0x20 CALLDATASIZE PUSH1 0x3 NOT ADD SLT PUSH2 0x20A JUMPI PUSH1 0x4 CALLDATALOAD PUSH1 0x0 SWAP1 DUP2 MSTORE PUSH1 0x2 PUSH1 0x20 MSTORE PUSH1 0x40 SWAP1 KECCAK256 DUP1 SLOAD PUSH1 0x1 PUSH1 0x1 PUSH1 0xA0 SHL SUB AND PUSH2 0x1820 PUSH1 0x1 DUP4 ADD PUSH2 0x1A2F JUMP JUMPDEST SWAP2 PUSH2 0x182D PUSH1 0x2 DUP3 ADD PUSH2 0x1A2F JUMP JUMPDEST PUSH2 0x1839 PUSH1 0x3 DUP4 ADD PUSH2 0x1A2F JUMP JUMPDEST SWAP2 PUSH2 0x1846 PUSH1 0x4 DUP3 ADD PUSH2 0x1A2F JUMP JUMPDEST SWAP3 PUSH1 0x5 DUP3 ADD SLOAD SWAP4 PUSH1 0x6 DUP4 ADD SLOAD SWAP1 PUSH1 0x7 DUP5 ADD SLOAD SWAP3 PUSH1 0x8 DUP6 ADD SLOAD SWAP5 PUSH1 0x9 ADD SLOAD SWAP6 PUSH1 0x40 MLOAD SWAP10 DUP11 SWAP10 DUP11 MSTORE PUSH1 0x20 DUP11 ADD PUSH2 0x180 SWAP1 MSTORE PUSH2 0x180 DUP11 ADD PUSH2 0x1883 SWAP2 PUSH2 0x1AD3 JUMP JUMPDEST DUP10 DUP2 SUB PUSH1 0x40 DUP12 ADD MSTORE PUSH2 0x1894 SWAP2 PUSH2 0x1AD3 JUMP JUMPDEST DUP9 DUP2 SUB PUSH1 0x60 DUP11 ADD MSTORE PUSH2 0x18A5 SWAP2 PUSH2 0x1AD3 JUMP JUMPDEST DUP8 DUP2 SUB PUSH1 0x80 DUP10 ADD MSTORE PUSH2 0x18B6 SWAP2 PUSH2 0x1AD3 JUMP JUMPDEST SWAP5 PUSH1 0xA0 DUP8 ADD MSTORE PUSH1 0xC0 DUP7 ADD MSTORE PUSH1 0xE0 DUP6 ADD MSTORE PUSH2 0x100 DUP5 ADD MSTORE PUSH1 0xFF DUP2 AND ISZERO ISZERO PUSH2 0x120 DUP5 ADD MSTORE DUP1 PUSH1 0x8 SHR PUSH1 0xFF AND ISZERO ISZERO PUSH2 0x140 DUP5 ADD MSTORE PUSH1 0x10 SHR PUSH1 0xFF AND ISZERO ISZERO PUSH2 0x160 DUP4 ADD MSTORE SUB SWAP1 RETURN JUMPDEST CALLVALUE PUSH2 0x20A JUMPI PUSH1 0x0 CALLDATASIZE PUSH1 0x3 NOT ADD SLT PUSH2 0x20A JUMPI PUSH1 0x3 SLOAD PUSH1 0x5 SLOAD SWAP1 PUSH1 0x0 SWAP2 DUP3 PUSH1 0x20 SWAP4 PUSH1 0x40 MLOAD PUSH2 0x1926 PUSH1 0x20 DUP3 PUSH2 0x1A0D JUMP JUMPDEST DUP3 DUP2 MSTORE DUP3 CALLDATASIZE DUP2 CALLDATACOPY DUP3 JUMPDEST DUP6 DUP2 LT PUSH2 0x1959 JUMPI POP PUSH1 0xA0 SWAP6 POP MLOAD SWAP2 PUSH1 0x40 MLOAD SWAP5 DUP6 MSTORE PUSH1 0x20 DUP6 ADD MSTORE PUSH1 0x40 DUP5 ADD MSTORE PUSH1 0x60 DUP4 ADD MSTORE PUSH1 0x80 DUP3 ADD MSTORE RETURN JUMPDEST DUP1 PUSH1 0x0 MSTORE PUSH1 0x2 DUP8 MSTORE PUSH2 0x1975 PUSH1 0x40 PUSH1 0x0 KECCAK256 SWAP5 PUSH1 0x7 DUP7 ADD SLOAD SWAP1 PUSH2 0x1BA3 JUMP JUMPDEST SWAP4 PUSH1 0xFF PUSH1 0x9 DUP3 ADD SLOAD AND PUSH2 0x19A3 JUMPI JUMPDEST PUSH1 0xB ADD SLOAD PUSH1 0x0 JUMPDEST DUP2 DUP2 LT PUSH2 0x199B JUMPI POP POP PUSH1 0x1 ADD PUSH2 0x192F JUMP JUMPDEST PUSH1 0x1 ADD PUSH2 0x198A JUMP JUMPDEST SWAP3 PUSH2 0x19AD SWAP1 PUSH2 0x1BB0 JUMP JUMPDEST SWAP3 PUSH2 0x1983 JUMP JUMPDEST CALLVALUE PUSH2 0x20A JUMPI PUSH1 0x0 CALLDATASIZE PUSH1 0x3 NOT ADD SLT PUSH2 0x20A JUMPI DUP1 PUSH7 0x2386F26FC10000 PUSH1 0x20 SWAP3 MSTORE RETURN JUMPDEST SWAP1 PUSH1 0x1 DUP3 DUP2 SHR SWAP3 AND DUP1 ISZERO PUSH2 0x1A03 JUMPI JUMPDEST PUSH1 0x20 DUP4 LT EQ PUSH2 0x19ED JUMPI JUMP JUMPDEST PUSH4 0x4E487B71 PUSH1 0xE0 SHL PUSH1 0x0 MSTORE PUSH1 0x22 PUSH1 0x4 MSTORE PUSH1 0x24 PUSH1 0x0 REVERT JUMPDEST SWAP2 PUSH1 0x7F AND SWAP2 PUSH2 0x19E2 JUMP JUMPDEST SWAP1 PUSH1 0x1F DUP1 NOT SWAP2 ADD AND DUP2 ADD SWAP1 DUP2 LT PUSH8 0xFFFFFFFFFFFFFFFF DUP3 GT OR PUSH2 0x72C JUMPI PUSH1 0x40 MSTORE JUMP JUMPDEST SWAP1 PUSH1 0x40 MLOAD SWAP2 DUP3 PUSH1 0x0 DUP3 SLOAD SWAP3 PUSH2 0x1A43 DUP5 PUSH2 0x19D3 JUMP JUMPDEST DUP1 DUP5 MSTORE SWAP4 PUSH1 0x1 DUP2 AND SWAP1 DUP2 ISZERO PUSH2 0x1AB1 JUMPI POP PUSH1 0x1 EQ PUSH2 0x1A6A JUMPI JUMPDEST POP PUSH2 0x1A68 SWAP3 POP SUB DUP4 PUSH2 0x1A0D JUMP JUMPDEST JUMP JUMPDEST SWAP1 POP PUSH1 0x0 SWAP3 SWAP2 SWAP3 MSTORE PUSH1 0x20 PUSH1 0x0 KECCAK256 SWAP1 PUSH1 0x0 SWAP2 JUMPDEST DUP2 DUP4 LT PUSH2 0x1A95 JUMPI POP POP SWAP1 PUSH1 0x20 PUSH2 0x1A68 SWAP3 DUP3 ADD ADD CODESIZE PUSH2 0x1A5B JUMP JUMPDEST PUSH1 0x20 SWAP2 SWAP4 POP DUP1 PUSH1 0x1 SWAP2 SLOAD DUP4 DUP6 DUP10 ADD ADD MSTORE ADD SWAP2 ADD SWAP1 SWAP2 DUP5 SWAP3 PUSH2 0x1A7C JUMP JUMPDEST SWAP1 POP PUSH1 0x20 SWAP3 POP PUSH2 0x1A68 SWAP5 SWAP2 POP PUSH1 0xFF NOT AND DUP3 DUP5 ADD MSTORE ISZERO ISZERO PUSH1 0x5 SHL DUP3 ADD ADD CODESIZE PUSH2 0x1A5B JUMP JUMPDEST SWAP2 SWAP1 DUP3 MLOAD SWAP3 DUP4 DUP3 MSTORE PUSH1 0x0 JUMPDEST DUP5 DUP2 LT PUSH2 0x1AFF JUMPI POP POP DUP3 PUSH1 0x0 PUSH1 0x20 DUP1 SWAP5 SWAP6 DUP5 ADD ADD MSTORE PUSH1 0x1F DUP1 NOT SWAP2 ADD AND ADD ADD SWAP1 JUMP JUMPDEST DUP1 PUSH1 0x20 DUP1 SWAP3 DUP5 ADD ADD MLOAD DUP3 DUP3 DUP7 ADD ADD MSTORE ADD PUSH2 0x1ADE JUMP JUMPDEST PUSH8 0xFFFFFFFFFFFFFFFF DUP2 GT PUSH2 0x72C JUMPI PUSH1 0x1F ADD PUSH1 0x1F NOT AND PUSH1 0x20 ADD SWAP1 JUMP JUMPDEST DUP2 PUSH1 0x1F DUP3 ADD SLT ISZERO PUSH2 0x20A JUMPI DUP1 CALLDATALOAD SWAP1 PUSH2 0x1B47 DUP3 PUSH2 0x1B14 JUMP JUMPDEST SWAP3 PUSH2 0x1B55 PUSH1 0x40 MLOAD SWAP5 DUP6 PUSH2 0x1A0D JUMP JUMPDEST DUP3 DUP5 MSTORE PUSH1 0x20 DUP4 DUP4 ADD ADD GT PUSH2 0x20A JUMPI DUP2 PUSH1 0x0 SWAP3 PUSH1 0x20 DUP1 SWAP4 ADD DUP4 DUP7 ADD CALLDATACOPY DUP4 ADD ADD MSTORE SWAP1 JUMP JUMPDEST PUSH1 0x24 CALLDATALOAD SWAP1 PUSH1 0x1 PUSH1 0x1 PUSH1 0xA0 SHL SUB DUP3 AND DUP3 SUB PUSH2 0x20A JUMPI JUMP JUMPDEST PUSH1 0x4 CALLDATALOAD SWAP1 PUSH1 0x1 PUSH1 0x1 PUSH1 0xA0 SHL SUB DUP3 AND DUP3 SUB PUSH2 0x20A JUMPI JUMP JUMPDEST SWAP2 SWAP1 DUP3 ADD DUP1 SWAP3 GT PUSH2 0x753 JUMPI JUMP JUMPDEST PUSH1 0x0 NOT DUP2 EQ PUSH2 0x753 JUMPI PUSH1 0x1 ADD SWAP1 JUMP JUMPDEST SWAP2 SWAP1 DUP3 SUB SWAP2 DUP3 GT PUSH2 0x753 JUMPI JUMP JUMPDEST RETURNDATASIZE ISZERO PUSH2 0x1BF7 JUMPI RETURNDATASIZE SWAP1 PUSH2 0x1BDD DUP3 PUSH2 0x1B14 JUMP JUMPDEST SWAP2 PUSH2 0x1BEB PUSH1 0x40 MLOAD SWAP4 DUP5 PUSH2 0x1A0D JUMP JUMPDEST DUP3 MSTORE RETURNDATASIZE PUSH1 0x0 PUSH1 0x20 DUP5 ADD RETURNDATACOPY JUMP JUMPDEST PUSH1 0x60 SWAP1 JUMP JUMPDEST PUSH1 0x2 PUSH1 0x0 SLOAD EQ PUSH2 0x1C0D JUMPI PUSH1 0x2 PUSH1 0x0 SSTORE JUMP JUMPDEST PUSH4 0x3EE5AEB5 PUSH1 0xE0 SHL PUSH1 0x0 MSTORE PUSH1 0x4 PUSH1 0x0 REVERT JUMPDEST PUSH1 0x1 SLOAD PUSH1 0x1 PUSH1 0x1 PUSH1 0xA0 SHL SUB AND CALLER SUB PUSH2 0x1C32 JUMPI JUMP JUMPDEST PUSH4 0x118CDAA7 PUSH1 0xE0 SHL PUSH1 0x0 MSTORE CALLER PUSH1 0x4 MSTORE PUSH1 0x24 PUSH1 0x0 REVERT JUMPDEST PUSH1 0xFF PUSH1 0x1 SLOAD PUSH1 0xA0 SHR AND PUSH2 0x1C56 JUMPI JUMP JUMPDEST PUSH4 0xD93C0665 PUSH1 0xE0 SHL PUSH1 0x0 MSTORE PUSH1 0x4 PUSH1 0x0 REVERT INVALID LOG2 PUSH5 0x6970667358 0x22 SLT KECCAK256 TIMESTAMP 0xAF 0xB2 0xFC DUP5 CALLER 0x2D 0xC8 0xE7 KECCAK256 SLOAD EXTCODECOPY SWAP13 0xB1 0xC1 RETURNDATASIZE EXTCODESIZE EXTCODEHASH TLOAD 0xCC DUP6 0x2E 0xC4 NOT 0xAB 0xDF LT SWAP3 JUMP 0xB3 0xB4 0xC1 PUSH5 0x736F6C6343 STOP ADDMOD BYTE STOP CALLER "},"methodIdentifiers":{"MAX_CAMPAIGN_DURATION()":"8c7bc838","MAX_GOAL()":"309bb3f2","MIN_CAMPAIGN_DURATION()":"8aea3dc9","MIN_GOAL()":"041ae4c6","PLATFORM_FEE_PERCENTAGE()":"15548232","campaignCounter()":"fca604d7","campaigns(uint256)":"141961bc","canClaimRefund(uint256,address)":"7befbefc","cancelCampaign(uint256)":"45598b4a","claimRefund(uint256)":"5b7baf64","contribute(uint256)":"c1cbbca7","createCampaign(string,string,string,string,uint256,uint256)":"a8aee940","emergencyWithdraw(uint256,string)":"3cbb4668","feeCollector()":"c415b95c","getCampaignDetails(uint256)":"d993de62","getCampaignStats(uint256)":"660bf9de","getContractBalance()":"6f9fb98a","getContribution(uint256,address)":"e081dbf9","getContributors(uint256)":"3c1ab00f","getPlatformStats()":"136d8883","isGoalReached(uint256)":"f19603aa","owner()":"8da5cb5b","pause()":"8456cb59","paused()":"5c975abb","renounceOwnership()":"715018a6","totalFeesCollected()":"60c6d8ae","transferOwnership(address)":"f2fde38b","unpause()":"3f4ba83a","updateFeeCollector(address)":"d2c35ce8","withdrawFunds(uint256)":"155dd5ee"}}}}}